:100000000C94741C0C94A51C0C94A51C0C94A51C9D
:100010000C94A51C0C94A51C0C94A51C0C94A51C5C
:100020000C94A51C0C94A51C0C94A51C0C94A51C4C
:100030000C94A51C0C94A51C0C94A51C0C94A51C3C
:100040000C94A51C0C9408400C94A51C0C94A51CA5
:100050000C94A51C0C94A51C0C94FA870C9486D4C3
:100060000C94A51C0C94AC3D0C94A51C0C94A51CE4
:100070000C94A51C0C94A51C0C94A51C0C94A51CFC
:100080000C94A51C0C94A51C0C94A51C0C94A51CEC
:100090000C94A51C0C94A51C0C94A51C0C94A51CDC
:1000A0000C94A51C0C94A51C0C94A51C0C94A51CCC
:1000B0000C94A51C0C94A51C0C94A51C0C94A51CBC
:1000C0000C94A51C0C94A51C0C94A51C0C94A51CAC
:1000D0000C94A51C0C94A51C0C94A51C0C94A51C9C
:1000E0000C94A51CF238F738FC38063910398939D8
:1000F0001A3922392A3934393E3948395739613960
:1001000089396B3975397F39CEC81EC756C708C9BA
:1001100056C756C756C756C756C756C756C756C7F7
:1001200056C756C756C756C756C756C756C756C7E7
:1001300056C756C756C756C756C756C756C756C7D7
:1001400056C756C703C956C756C756C756C756C718
:1001500056C756C756C7DCC856C756C756C756C730
:1001600056C756C756C756C756C756C71FC953C7DF
:100170003CD23FD22ED232D238D276D243D247D2DC
:100180004DD251D255D25BD25FD263D276D269D2F0
:100190006DD271D2084AD73B3BCE016E84BCBFFD05
:1001A000C12F3D6C74319ABD56833DDA3D00C77F47
:1001B00011BED9E4BB4C3E916BAAAABE00000080E0
:1001C0003F05A84CCDB2D44EB93836A9020C50B96F
:1001D000918688083CA6AAAA2ABE000000803F009B
:1001E0004E414E494E495459494E46CDCCCC3D0A1C
:1001F000D7233C17B7D13877CC2B329595E6241FFF
:10020000B14F0A000020410000C84200401C4620B7
:10021000BCBE4CCA1B0E5AAEC59D74434F4D4D55C6
:100220004E49434154494F4E0044525952554E0095
:100230004552524F525300494E464F004543484F96
:100240000047322F47332062616420706172616D14
:1002500065746572730A00557370616E6F2E2E2E71
:1002600000526562656C2049492070726970726144
:1002700076656E2E004F626E6F766F76616E6920C6
:100280007469736B750043656B616E69206E6120E4
:10029000757A69762E2E2E005A61646E7920706F01
:1002A0006879622E00456E642066696C65206C6911
:1002B00073740A00426567696E2066696C65206C1C
:1002C0006973740A004D31323500534420707269ED
:1002D0006E74696E67206279746520004E6F7420B9
:1002E0005344207072696E74696E670A00256973E1
:1002F0000025696D20256973002569682025696DD1
:100300002025697300256964202569682025696DA9
:10031000202569730025697920256964202569688D
:100320002025696D20256973005072696E742074F0
:10033000696D653A20004525692025730052656284
:10034000656C2049492070726970726176656E2E05
:10035000003C023702300229021B026F666600442D
:10036000454255473A00505245525553454E4F2E3F
:1003700020004D3131332053006F6B00506F646C9F
:100380006F7A6B6120686F746F76612E0020573A28
:10039000005A6168726976616E6920706F646C2EB4
:1003A00000526562656C204949205679702E0043E1
:1003B00061703A454D455247454E43595F50415251
:1003C0005345523A300A004361703A434153455F06
:1003D0004C494748545F4252494748544E4553534D
:1003E0003A300A004361703A544F47474C455F4CDE
:1003F00049474854533A300A004361703A534F46D4
:1004000054574152455F504F5745523A300A0043C6
:1004100061703A4C4556454C494E475F4441544102
:100420003A300A004361703A5A5F50524F42453A9F
:10043000300A004361703A4155544F4C4556454C83
:100440003A300A004361703A5052494E545F4A4F65
:10045000423A310A004361703A50524F4752455375
:10046000533A300A004361703A4155544F52455057
:100470004F52545F54454D503A310A004361703A2F
:10048000454550524F4D3A310A004649524D574169
:1004900052455F4E414D453A4D61726C696E203157
:1004A0002E312E345F4A5333315F303231202847AA
:1004B00069746875622920534F555243455F434F15
:1004C00044455F55524C3A68747470733A2F2F67E5
:1004D00069746875622E636F6D2F4D61726C696E01
:1004E0004669726D776172652F4D61726C696E201D
:1004F00050524F544F434F4C5F56455253494F4E05
:100500003A312E30204D414348494E455F545950B1
:10051000453A526562656C20494920455854525508
:100520004445525F434F554E543A31205555494446
:100530003A63656465326132662D343161322D343F
:100540003734382D396231322D63353563363266B2
:1005500033363766660A002F2F20004D31343520A0
:10056000533C696E6465783E206F7574206F662019
:1005700072616E67652028302D31290A0053657439
:1005800074696E672054726176656C20416363659F
:100590006C65726174696F6E3A200053657474699A
:1005A0006E67205265747261637420416363656C89
:1005B00065726174696F6E3A200053657474696E78
:1005C00067205072696E7420416363656C65726167
:1005D00074696F6E3A200053657474696E672050B9
:1005E00072696E7420616E642054726176656C204D
:1005F000416363656C65726174696F6E3A200020B7
:100600005A00205900580020204D61783A200020DF
:100610005A00205900580020204D696E3A20005A97
:1006200061700056797000536F667420656E647354
:10063000746F70733A2000000136372603FF3C3D8B
:10064000380EFF2E303E12FFFF0C0809FFFFFF1A85
:100650001C18FFFF08440AFF43FFFFFFFFFFFF20B6
:10066000643A0020693A0020703A0043290A006188
:10067000626C656420286D696E2074656D70200061
:10068000436F6C6420657874727564657320617261
:100690006520004F6673657479206E6173746176AE
:1006A000656E79004572723A20546F6F20666172F0
:1006B0002100546F6F206661722066726F6D207228
:1006C00065666572656E636520706F696E740A0099
:1006D0004E6F2063617365206C696768740A00411E
:1006E00063746976652045787472756465723A2022
:1006F00000556E6B6E6F776E20636F6D6D616E640B
:100700003A202200505245525553454E4F2E20005C
:100710005A4153544156454E4F2E20005072696E37
:100720007465722073746F707065642064756520E1
:10073000746F206572726F72732E20466978207410
:100740006865206572726F7220616E6420757365D2
:10075000204D39393920746F207265737461727459
:100760002E202854656D70657261747572652069FC
:10077000732072657365742E20536574206974202C
:1007800061667465722072657374617274696E67F4
:10079000290A004E6F204C696E65204E756D6265AA
:1007A00072207769746820636865636B73756D2C5C
:1007B000204C617374204C696E653A20004E6F20A6
:1007C000436865636B73756D2077697468206C6925
:1007D0006E65206E756D6265722C204C617374209D
:1007E0004C696E653A2000636865636B73756D20B4
:1007F0006D69736D617463682C204C617374204C57
:10080000696E653A20004C696E65204E756D6265B3
:1008100072206973206E6F74204C617374204C6970
:100820006E65204E756D6265722B312C204C6173A4
:1008300074204C696E653A20004D313130004D33E3
:1008400031004D383420582059205A204500534457
:100850002072656164206572726F720A00446F6E67
:1008600065207072696E74696E672066696C650ACE
:100870000020496E76616C696420657874727564D5
:100880006572200000000000000000000000000071
:1008900000004843000048430000344346696C654B
:1008A0002064656C657465643A0044656C657469C0
:1008B0006F6E206661696C65642C2046696C653AD0
:1008C00020006F70656E206661696C65642C20463F
:1008D000696C653A200050726F74656374656420BA
:1008E00050696E0A0024F4D43050C38E20C2A24056
:1008F00017828B7011127A910D816CD90AA861E16F
:1009000008C7586607615143061E4B5D05C145A7E0
:10091000041A411104093D9803713931034036DB53
:100920000265339102D4305402802E1D02632CEEF6
:1009300001752AC501B028A001102781018F256407
:10094000012B244B01E0223401AC211F018D200D2D
:1009500001801FFC00841EED00971DDF00B81CD233
:1009600000E61BC600201BBC00641AB200B219A826
:10097000000A19A0006A189900D117910040178B3E
:1009800000B516840031167E00B31579003A157350
:1009900000C7146F0058146A00EE136600881363D2
:1009A0000025135E00C7125B006C1257001512542D
:1009B00000C111510070114F0021114B00D6104998
:1009C000008D1047004610440002104200C00F4046
:1009D00000800F3E00420F3C00060F3B00CB0E385C
:1009E00000930E37005C0E3500270E3400F30D32F5
:1009F00000C10D3100900D3000600D2E00320D2D24
:100A000000050D2C00D90C2B00AE0C2900850C29FB
:100A1000005C0C2700350C27000E0C2600E80B2488
:100A200000C40B2400A00B23007D0B23005A0B21D4
:100A300000390B2100180B2000F80A1F00D90A1EEC
:100A400000BB0A1E009D0A1D00800A1D00630A1CCF
:100A500000470A1B002C0A1B00110A1A00F7091A8A
:100A600000DD091900C4091900AB09190092091722
:100A7000007B091800630917004C09160036091697
:100A800000200916000A091500F5081500E00814F1
:100A900000CC081400B8081400A40814009008132F
:100AA000007D0812006B0813005808120046081257
:100AB0000034081100230811001208110001081168
:100AC00000F0071000E0071000D0071000C007106A
:100AD00000B0070F00A107100091070E0083070F59
:100AE0000074070F0065070E0057070E0049070E38
:100AF000003B070D002E070E0020070D0013070D09
:100B00000006070D00F9060C00ED060D00E0060CCE
:100B100000D4060C00C8060C00BC060C00B0060C85
:100B200000A4060B0099060C008D060B0082060B34
:100B30000077060B006C060B0061060A0057060BD7
:100B4000004C060A0042060A0038060A002E060A71
:100B50000024060A001A060A001006090007060A01
:100B600000FD050900F4050900EB050900E205098F
:100B700000D9050900D0050900C7050900BE05090F
:100B800000B5050800AD050800A50509009C05088D
:100B900000940508008C050800840508007C050801
:100BA00000740508006C050700650508005D050771
:100BB00000560508004E05070047050700400508D8
:100BC0000038050700310507002A0507002305073F
:100BD000001C050600160507000F0507000805069E
:100BE0000002050700FB040600F5040700EE0406FA
:100BF00000E8040600E2040700DB040600D5040652
:100C000000CF040600C9040600C3040600BD0406A4
:100C100000B7040600B1040500AC040600A60406F3
:100C200000A00405009B040600950405009004063E
:100C3000008A04050085040500800406007A040586
:100C40000075040500700405006B040500660405CA
:100C500000610405005C040500570405005204050A
:100C6000004D04050048040500430405003E04044B
:100C7000003A04050035040500300404002C040586
:100C80000027040400230405001E0404001A0404C1
:100C90000016040500110404000D040400090405F5
:100CA000000404040000040400FC030400F803042E
:100CB00000F4030400F0030400EC030400E8030460
:100CC00000E4030400E0030400DC030400D8030490
:100CD00000D4030400D0030400CC030400C80303C1
:100CE00000C503030024F404D9201BC40C5C0E9837
:100CF00004C4095F0265077101F405F900FB04B340
:100D00000048048700C103690058035500030345E8
:100D100000BE023A008402310053022A0029022553
:100D20000004022000E4011C00C8011900AF0117F3
:100D3000009801140084011300710110006101107A
:100D40000051010E0043010D0036010B002B010B79
:100D50000020010B00150109000C01090003010826
:100D600000FB000800F3000800EB000700E40006A9
:100D700000DE000600D8000600D2000600CC000508
:100D800000C7000500C2000500BD000400B9000452
:100D900000B5000400B1000400AD000400A9000487
:100DA00000A5000300A20003009F0004009B0003B5
:100DB00000980003009500020093000300900003D8
:100DC000008D0002008B00030088000200860002F4
:100DD0000084000300810002007F0002007D000209
:100DE000007B00020079000200770001007600021B
:100DF000007400020072000100710002006F000226
:100E0000006D0001006C0002006A00010069000230
:100E10000067000100660001006500010064000237
:100E2000006200010061000100600001005F00023B
:100E3000005D0001005C0001005B0001005A000140
:100E40000059000100580001005700010056000140
:100E50000055000100540001005300000053000140
:100E6000005200010051000100500001004F00013C
:100E7000004E0000004E0001004D0001004C00013A
:100E8000004B0000004B0001004A00010049000136
:100E90000048000000480001004700010046000033
:100EA000004600010045000000450001004400012B
:100EB0000043000000430001004200000042000126
:100EC000004100000041000100400001003F00001F
:100ED000003F0001003E0000003E0001003D000018
:100EE000003D0001003C0000003C0000003C00010F
:100EF000003B0000003B0001003A0000003A000106
:100F000000390000003900010038000000380000FE
:100F100000380001003700000037000100360000F3
:100F200000360000003600010035000000350000EA
:100F300000350001003400000034000000340001DE
:100F400000330000003300000033000100320000D5
:100F500000320000003200010031000000310000CA
:100F600000310001003000000030000000300001BE
:100F7000002F0000002F0000002F0000002F0001B4
:100F8000002E0000002E0000002E0001002D0000A9
:100F9000002D0000002D0000002D0001002C00009D
:100FA000002C0000002C0000002C0001002B000091
:100FB000002B0000002B0000002B0001002A000085
:100FC000002A0000002A0000002A00010029000079
:100FD000002900000029000000290000002900016C
:100FE0000028000000280000002800000028000061
:100FF0000028000100270000002700000027000053
:101000000027000000270001002600000026000045
:101010000026000000260000002600010025000038
:10102000002500000025000000250000002500002C
:10103000002500010024000000240000002400001E
:101040000024000000240001002300000023000011
:101050000023000000230000002300000023000004
:1010600000230001002200000022000000220000F6
:1010700000220000002200000022000100210000E8
:1010800000210000002100000021000000210000DC
:1010900000210000002100010020000000200000CD
:1010A00000200000002000000020000000200000C0
:1010B0000020000000200001001F0000001F0000B1
:1010C000001F0000001F0000001F0000001F0000A4
:1010D000001F0001001E0000001E0000001E000096
:1010E000001E0000004D383420582059205A204559
:1010F000001FFFFFFFFFFFFF600000000001FF4037
:101100000000000000FF8000000000007F83CF008F
:10111000000C303F87FF80000C301F867980000C68
:10112000000F8C30C7838C30E78C30CFC7CC31F3C5
:101130008C30DCECEC33B98C30D86C6C33198C30DF
:10114000D06C0C33198C30D86C0C33198C30DC6CAF
:101150000E3B198C30CF7C079F198C30C77C038FD6
:101160001940000000000002600000000000061F9F
:10117000FFFFFFFFFFF825753A2530327500253057
:1011800032753A2530327500257564202530327568
:101190003A25303275005A005900580009200000E5
:1011A00000000000000000000000007FFFE00000E1
:1011B000000000000000000000007000E0000000DF
:1011C00000000000000000000061F8600000000066
:1011D000000000000000000041F8200000000000B6
:1011E0000000000000000040F020000000000000AF
:1011F000000000000000406020000000000000002F
:1012000000000000005801A07F80000000000000E6
:10121000004104005C63A0FFC0000000000000006B
:101220002082005EF7A0FFC0000000000000002048
:1012300082005EF7A0FFC000000000000000410433
:10124000005C63A07F8000000000000000820800B6
:101250005801A07F80000000000000010410004041
:101260006020FFC00000000000000104100040F0FA
:1012700020FFC00000000000000082080041F820AC
:10128000FFC00000000000000041040061F8603F62
:1012900000000000000000000000007000E01E00E0
:1012A00000000000000001FFFF807FFFE00C000055
:1012B000000000000001FFFF8000000000000000AF
:1012C00000000000000000007FFFE00000000000C0
:1012D000000000000000007000E0000000000000BE
:1012E000000000000000630C60000000000000002F
:1012F0000000000000470E20000000000000000079
:10130000000000004F0F200000000000000000005F
:101310000000005F0FA000000000000000000000BF
:1013200000005E07A07F8000000000000000410474
:1013300000406020FFC0000000000000002082008C
:1013400040F020FFC00000000000000020820040AC
:10135000F020FFC0000000000000004104004060D9
:10136000207F80000000000000008208005E07A0CF
:101370007F80000000000000010410005F0FA0FF4C
:10138000C0000000000000010410004F0F20FFC04B
:1013900000000000000000820800470E20FFC0008F
:1013A000000000000000410400630C603F000000EA
:1013B00000000000000000007000E01E00000000BF
:1013C00000000001FFFF807FFFE00C000000000034
:1013D000000001FFFF800000004D3530320A4D351E
:1013E0003030004F626E6F76697420767963686F73
:1013F0007A69004E6163697374206E6173746176FB
:10140000656E6900496E69632E20454550524F4D07
:1014100000556C6F7A6974206E6173746176656EC5
:10142000690046696C616D656E7400506F68796221
:10143000005465706C6F746100486C61766E692051
:101440006E616269646B61004D3330332055312029
:1014500045256920532569005A61687261742041ED
:101460004253206E617374005A6168726174205037
:101470004C41206E61737400504944204175746F73
:1014800074756E6500504944204175746F74756EB3
:101490006500504944204175746F74756E65005045
:1014A00049442D44005049442D44005049442D499D
:1014B000005049442D49005049442D5000504944A2
:1014C0002D500020082046616B74002008204661E2
:1014D0006B74002008204D6178002008204D617851
:1014E000002008204D6178002008204D696E002002
:1014F00008204D696E002008204D696E00567970F5
:10150000005A6170004175746F7465706C6F74611E
:1015100000527963686C6F73742076656E742E0068
:10152000527963686C6F73742076656E742E005206
:101530007963686C6F73742076656E742E00506FDB
:10154000646C6F7A6B6100506F646C6F7A6B6100D2
:10155000506F646C6F7A6B6100547279736B6100C9
:10156000547279736B6100547279736B61004F76BA
:101570006C6164616E6900556C6F7A6974206E618C
:1015800073746176656E6900506F646C6F7A6B611D
:1015900000506F646C6F7A6B6100506F646C6F7A8F
:1015A0006B6100547279736B6100547279736B6173
:1015B00000547279736B6100527963686C6F737455
:1015C0002076656E742E00527963686C6F73742098
:1015D00076656E742E00527963686C6F7374207632
:1015E000656E742E005465706C6F74610056547291
:1015F0006176206D696E005654726176206D696E59
:10160000005654726176206D696E00566D696E00E9
:10161000566D696E00566D696E00566D6178204595
:1016200000566D6178204500566D61782045005662
:101630006D6178205A00566D6178205A00566D61B0
:1016400078205A00566D6178205900566D617820D7
:101650005900566D6178205900566D617820580008
:10166000566D6178205800566D6178205800506F93
:1016700068796200202F002042403A0020403A0062
:101680005A61687261746920686F746F766F2E009A
:1016900020573A0045256920257300526562656C24
:1016A0002049492070726970726176656E2E002043
:1016B0005A3A0020593A0020436F756E7420583A08
:1016C0000020453A00205A3A0020593A00583A0082
:1016D00023646566696E65202044454641554C5437
:1016E0005F4B64200023646566696E652020444575
:1016F0004641554C545F4B69200023646566696E12
:1017000065202044454641554C545F4B70200050A5
:101710004944204175746F74756E652066696E6901
:1017200073686564212050757420746865206C614D
:101730007374204B702C204B6920616E64204B64C5
:1017400020636F6E7374616E74732066726F6D20A8
:1017500062656C6F7720696E746F20436F6E666987
:101760006775726174696F6E2E680A005049442073
:101770004175746F74756E65206661696C6564216E
:101780002074696D656F75740A0050494420417575
:10179000746F74756E65206661696C656421205490
:1017A000656D706572617475726520746F6F206805
:1017B0006967680A00204B643A2000204B693A2090
:1017C00000204B703A20000A20436C6173736963F8
:1017D00020504944200A002054753A2000204B75BF
:1017E0003A2000206D61783A2000206D696E3A2021
:1017F0000020643A200020626961733A20002020B2
:10180000547279736B613A200020006E61206E6122
:1018100068726174692074722E0043656B656A7426
:10182000652070726F73696D005052494E5420509C
:101830004155534544002020547279736B613A201E
:101840000020006E61687261746920747279736B34
:1018500079004B6C696B6E6574652070726F005017
:1018600052494E5420504155534544002020547253
:1018700079736B613A2000746C616369746B6F2ECD
:101880002E2E006120737469736B6E65746500564B
:101890006C6F7A74652066696C616D656E7400505A
:1018A00052494E5420504155534544002020547213
:1018B00079736B613A200066696C616D656E747551
:1018C000006E61207A61766564656E690043656BC0
:1018D000656A74652070726F73696D005052494E6D
:1018E0005420504155534544002020547279736B65
:1018F000613A200066696C616D656E7475006E6199
:10190000207679746C6163656E690043656B656A06
:1019100074652070726F73696D005052494E542087
:10192000504155534544007469736B75006E6120D6
:10193000706F6B7261636F76616E690043656B6592
:101940006A74652070726F73696D005052494E540D
:1019500020504155534544004B61727461207679A3
:101960006A6D757461004B6172746120766C6F7A78
:10197000656E610000060900FE070192032120FF49
:10198000FF08FF07FF00000006000001070706022E
:101990000080808080800080030202060105A0A0F4
:1019A0000507070600005050F850F850500507078B
:1019B0000600002078A07028F02005070706000028
:1019C000C0C810204098180507070600006090A0C6
:1019D00040A89068020303060104C0408003070783
:1019E0000601002040808080402003070706010098
:1019F0008040202020408005050506000120A870B9
:101A0000A8200505050600012020F8202002030378
:101A10000602FFC04080050101060003F802020231
:101A2000060200C0C0050505060001081020408020
:101A300005070706000070888888888870030707F4
:101A400006010040C040404040E005070706000096
:101A5000708808708080F8050707060000F81020DD
:101A6000100808F005070706000010305090F81025
:101A700010050707060000F880F0080888700507C1
:101A800007060000708080F0888870050707060050
:101A900000F80810202020200507070600007088A5
:101AA00088708888700507070600007088887808A5
:101AB0000870020505060200C0C000C0C00206068C
:101AC0000602FFC0C000C0408004070706000010E7
:101AD000204080402010050303060002F800F804AF
:101AE00007070601008040201020408005070706F8
:101AF000000070880810200020050707060000700D
:101B0000880868A8A870050707060000708888F88C
:101B1000888888050707060000F08888F08888F024
:101B20000507070600007088808080887005070719
:101B3000060000F08888888888F0050707060000FE
:101B4000F88080F08080F8050707060000F88080A4
:101B5000F0808080050707060000708880B88888BC
:101B600070050707060000888888F88888880107BC
:101B700007060200808080808080800507070600BD
:101B800000381010101090600507070600008890BC
:101B9000A0C0A09088050707060000808080808094
:101BA00080F805070706000088D8A8888888880577
:101BB00007070600008888C8A898888805070706D0
:101BC000000070888888888870050707060000F084
:101BD0008888F08080800507070600007088888864
:101BE000A89068050707060000F08888F0A0908894
:101BF000050707060000788080700808F0050707D1
:101C0000060000F8202020202020050707060000FD
:101C10008888888888887005070706000088888873
:101C2000888850200507070600008888888888A8CB
:101C3000500507070600008888502050888805074F
:101C40000706000088888850202020050707060026
:101C500000F80810204080F8030707060100E08024
:101C600080808080E0050505060001804020100886
:101C7000030707060100E02020202020E0050303E1
:101C8000060004205088050101060000F802020247
:101C90000602058040050505060000700878887872
:101CA0000507070600008080B0C88888F005050594
:101CB000060000708080887005070706000008088D
:101CC00068988888780505050600007088F8807097
:101CD0000507070600003048E04040404005060682
:101CE0000600FF70888878087005070706000080E6
:101CF00080B0C888888801070706020080008080BD
:101D00008080800308080601FF200020202020A0FA
:101D100040040707060000808090A0C0A090030741
:101D200007060100C04040404040E00505050600B0
:101D300000D0A8A8A8A8050505060000B0C8888896
:101D40008805050506000070888888700506060667
:101D500000FFF08888F080800506060600FF78887E
:101D600088780808050505060000B0C88080800551
:101D7000050506000070807008F0040707060000E3
:101D80004040E04040403005050506000088888856
:101D90009868050505060000888888502005050517
:101DA0000600008888A8A850050505060000885090
:101DB0002050880506060600FF8888887808700588
:101DC0000505060000F8102040F80307070601008B
:101DD00020404080404020010707060200808080AC
:101DE000808080800307070601008040402040403B
:101DF0008005020206000268900000000600000054
:101E000000000600000000000600000000000600C0
:101E100000000000060000000000060000000000B6
:101E200006000000000006000000000006000000A0
:101E30000000060000000000060000000000060090
:101E40000000000006000000000006000000000086
:101E50000600000000000600000000000600000070
:101E60000000060000000000060000000000060060
:101E70000000000006000000000006000000000056
:101E80000600000000000600000000000600000040
:101E90000000060000000000060000000000060030
:101EA0000000000006000000000006000000000026
:101EB0000600000000000600000000000600000010
:101EC00000000600000107070602008000808080F5
:101ED00080800507070600002070A8A0A8702005D4
:101EE0000707060000304040E04050A80505050601
:101EF0000000887050708805070706000088502091
:101F0000F820F8200107070602008080800080800A
:101F100080050808060000304820505020906003DB
:101F20000101060107A0050707060000F888B8B8F8
:101F3000B888F8050707060001700878887800F867
:101F40000505050600012850A050280503030600DA
:101F500001F808080202020602064080050707068B
:101F60000000F888A88898A8F8050101060006F87E
:101F70000404040600036090906005070706000053
:101F80002020F8202000F8040505060003609020BA
:101F900040F0030505060003E020E020E002020215
:101FA00006020640800508080600FF888888889891
:101FB000E8808005070706000078989878181818B8
:101FC000020202060202C0C00202020602FF4080B4
:101FD00003050506000340C04040E0050707060072
:101FE00001708888887000F8050505060001A0507A
:101FF0002850A00507070600008890A858B80808D0
:102000000507070600008890B8489820380508089A
:10201000060000C040C048D8380808050707060079
:10202000002000204080887005080806000040203D
:10203000007088F8888805080806000010200070E5
:1020400088F888880508080600002050007088F885
:1020500088880508080600006890007088F888885D
:102060000508080600005000708888F88888050870
:10207000080600002050207088F8888805070706A9
:1020800000003860A0B8E0A0B80508080600FF709E
:1020900088808088702060050808060000402000C5
:1020A000F880F080F8050808060000081000F880A5
:1020B000F080F8050808060000205000F880F08045
:1020C000F80507070600005000F880F080F80308C4
:1020D00008060100804000E0404040E00308080698
:1020E0000100204000E0404040E0030808060100F5
:1020F00040A000E0404040E0030707060100A000C8
:10210000E0404040E0050707060000704848E84806
:10211000487005080806000068900088C8A89888DC
:102120000508080600004020708888888870050827
:102130000806000010207088888888700508080646
:10214000000020500070888888700508080600008C
:1021500068900070888888700508080600005000A4
:102160007088888888700505050600018850205011
:10217000880508080600FF1070A8A8A8A8704005E8
:1021800008080600004020888888888870050808AC
:1021900006000010208888888888700508080600D6
:1021A00000205000888888887005080806000050C4
:1021B0000088888888887005080806000010208834
:1021C00050202020200509090600FFC04070484823
:1021D000704040E00408080601FF609090A09090D5
:1021E000E080050808060000402000700878887824
:1021F0000508080600001020007008788878050897
:102200000806000020500070087888780508080645
:1022100000006890007008788878050707060000BD
:1022200050007008788878050808060000205020C3
:102230007008788878050606060000D02878A0A8DF
:10224000500506060600FF708088702060050808AB
:102250000600004020007088F8807005080806001D
:10226000001020007088F880700508080600002023
:1022700050007088F8807005070706000050007055
:1022800088F8807003080806010080400040C040C4
:1022900040E003080806010020400040C04040E044
:1022A00003080806010040A00040C04040E00307CA
:1022B00007060100A00040C04040E00507070600F7
:1022C00000A040A0107888700508080600006890FB
:1022D00000B0C88888880508080600004020007003
:1022E000888888700508080600001020007088881B
:1022F00088700508080600002050007088888870E3
:102300000508080600006890007088888870050736
:1023100007060000500070888888700505050600D3
:10232000012000F800200507070600FF1070A8A88C
:10233000A87040050808060000402000888888989A
:10234000680508080600001020008888889868053D
:10235000080806000020500088888898680507074C
:10236000060000500088888898680509090600FF63
:10237000102000888888F808700407070601FFC04D
:102380004060506040E00508080600FF5000888863
:102390008878087050726F76656474652072657312
:1023A0006574005449534B2E205A415354415645AD
:1023B0004E41005072696E7465722068616C74657C
:1023C000642E206B696C6C28292063616C6C6564D9
:1023D000210A0000000000000000000000000000D2
:1023E0000048420000484200004040000000005702
:1023F00061726E696E673A20486F6D696E67204240
:10240000756D702044697669736F72203C20310AC3
:10241000000202040000A0400000A04000000040B4
:10242000000048430000484300003443FFFFFF4DD5
:1024300036303020486F74656E6420746F6F20638F
:102440006F6C6420746F206368616E6765206669D5
:102450006C616D656E740A0043616E6E6F74206509
:102460006E746572207375626469723A2000022E80
:102470002E00486C61766E69206E616269646B61E2
:10248000005465706C6F7461206D61783A2031354D
:1024900030005465706C6F7461206D696E3A203540
:1024A00000544265643A4550434F53203130304B1D
:1024B000005465706C6F7461206D61783A2032371A
:1024C00035005465706C6F7461206D696E3A20350B
:1024D0000054303A204550434F53203130304B00A8
:1024E0004E61702E207A64726F6A3A2047656E657D
:1024F0007269630050726F746F6B6F6C3A20312E8B
:102500003000527963686C6F73743A203131353220
:1025100030300052414D505320312E3400457874F4
:102520007275646572793A203100687474703A2F5C
:102530002F6D61726C696E66772E6F7267005265DF
:1025400062656C20494900323031372D30372D30EB
:10255000342031323A303000312E312E345F4A533C
:1025600033315F303231004D61726C696E005465F9
:10257000726D6973746F727900496E666F206F2097
:10258000646573636500496E666F206F20746973BC
:102590006B61726E6500486C61766E69206E616277
:1025A00069646B61002020547279736B613A20007A
:1025B00020005A706574004D696E2E207465706C31
:1025C0006F7461206A65203137302E00436879626C
:1025D00061207A6168726976616E69004A65737418
:1025E00065207679746C61636974004F626E6F76F2
:1025F0006974207469736B00524553554D45204FE3
:102600005054494F4E533A002020547279736B61F5
:102610003A200076796D656E792066696C616D652A
:102620006E7475006E61207A6168616A656E69001A
:1026300043656B656A74652070726F73696D0050D5
:1026400052494E5420504155534544002020547265
:1026500079736B613A200066696C616D656E7475A3
:10266000006E6120767973756E7574690043656BD1
:10267000656A74652070726F73696D005052494EBF
:1026800054205041555345440053442063617264C3
:10269000206F6B0A006F70656E526F6F74206661F9
:1026A000696C65640A00766F6C756D652E696E697C
:1026B00074206661696C65640A004572726F723AD3
:1026C00000534420696E6974206661696C0A006178
:1026D00075746F25692E67004D3234004D323320FA
:1026E000257300656E7175657565696E67202200DA
:1026F0006563686F3A006265640A002C2073797321
:1027000074656D2073746F70706564212048656115
:102710007465725F49443A20004368796261207AA7
:102720006168726976616E690048656174696E6797
:10273000206661696C6564004368796261207A6132
:1027400068726976616E690048656174696E6720B8
:102750006661696C65640070012C0190012701B00D
:10276000012201C0011D01F0011801100213013006
:10277000020E016002090190020401C002FF000084
:1027800003FA004003F5008003F000D003EB0020C3
:1027900004E6007004E100E004DC004005D700C05E
:1027A00005D2004006CD00D006C8008007C3003027
:1027B00008BE00F008B900C009B400B00AAF00B00C
:1027C0000BAA00D00CA500000EA000500F9B00C06B
:1027D0001096005012910000148C00C0158700B0B4
:1027E000178200B0197D00D01B7800001E730040D6
:1027F000206E0090226900F024640040275F009062
:10280000295A00E02B5500102E500020304B0010AC
:10281000324600E033410090353C001037370070FD
:10282000383200A0392D00B03A2800A03B230060C8
:102830003C1E00103D1900903D1400103E0F00702A
:102840003E0A00C03E0500003F0000403FFBFF8005
:102850003FF6FFC03FF1FF5445504C4F544E4920C6
:10286000534B4F4B00546865726D616C2052756E0E
:1028700061776179004E495A2E205445504C2E20E4
:10288000504F444C2E004E495A4B41205445504C19
:102890004F5441004D494E54454D50207472696764
:1028A0006765726564005659532E205445504C2E6E
:1028B00020504F444C2E005659534F4B4120544505
:1028C000504C4F5441004D415854454D5020747266
:1028D0006967676572656400416D617820450041F4
:1028E0006D6178204500416D6178205A00416D612D
:1028F00078205A00416D6178205900416D6178203F
:102900005900416D6178205800416D617820580070
:10291000412D7072656A657A6400412D7072656A36
:10292000657A6400412D72657472616B7400412D8B
:1029300072657472616B74005A727963686C005AC4
:10294000727963686C00506F6879620056652D6A11
:1029500065726B0056652D6A65726B0056652D6A4F
:1029600065726B00567A2D6A65726B00567A2D6A15
:1029700065726B0056792D6A65726B0056792D6A07
:1029800065726B0056792D6A65726B0056782D6AF8
:1029900065726B0056782D6A65726B0056782D6AE9
:1029A00065726B00506F68796200456B726F6B7572
:1029B0002F6D6D00456B726F6B752F6D6D005A6BCF
:1029C000726F6B752F6D6D005A6B726F6B752F6D1B
:1029D0006D00596B726F6B752F6D6D00596B726F57
:1029E0006B752F6D6D00586B726F6B752F6D6D0071
:1029F000586B726F6B752F6D6D00506F6879620048
:102A00004B726F6B752F6D6D004A65726B00416B79
:102A100063656C657261636500527963686C6F739E
:102A200074004F766C6164616E690046696C2E209B
:102A30005072756D2E0046696C2E205072756D2E89
:102A400000567970005A61700045206E61206D6DEE
:102A500033004F766C6164616E69005A616872611F
:102A6000742041425320686F74656E64005A616837
:102A70007261742041425320706F646C6F7A005A07
:102A800061687261742041425300507269707261D2
:102A90007661207469736B75004D343238005A6169
:102AA0006872617420504C41005A63686C616469BB
:102AB000740056796D656E69742066696C616D6528
:102AC0006E74005A616872617420414253005576F9
:102AD0006F6C6E6974206D6F746F7279004D38344D
:102AE000004E61737461766974206F6673657479E2
:102AF00000446F6D75206F7361205A004732382093
:102B00005A00446F6D75206F736120590047323849
:102B1000205900446F6D75206F7361205800473253
:102B200038205800446F6D6F76736B6120706F7A38
:102B30006963650047323800506F73756E6F757446
:102B4000206F737900486C61766E69206E616269EE
:102B5000646B6100506F73756E6F75742058005010
:102B60006F73756E6F7574205900506F73756E6F4B
:102B70007574205A00457874727564657200506FE0
:102B800073756E6F7574206F20302C316D6D005031
:102B90006F73756E6F7574206F20316D6D00506F9F
:102BA00073756E6F7574206F2031306D6D00506FCE
:102BB00073756E6F7574206F7379004578747275D4
:102BC00064657200506F73756E6F7574205A005093
:102BD0006F73756E6F7574205900506F73756E6FDB
:102BE0007574205800457874727564657200506F72
:102BF00073756E6F7574205A00506F73756E6F75B4
:102C000074205900506F73756E6F757420580050A2
:102C100072697072617661207469736B75005469B2
:102C2000736B20706F7A6173746176656E004D31DD
:102C3000323500004D3234005469736B207A72755E
:102C400073656E005A61646E61205344206B61723B
:102C50007461005469736B6E6F7574207A205344ED
:102C6000005A61737461766974207469736B004FE4
:102C7000626E6F766974207469736B004F2074699B
:102C8000736B61726E6500506F7A617374617669FF
:102C900074207469736B004F766C6164616E6900B7
:102CA0005072697072617661207469736B7500444B
:102CB0006F6C6164656E69207469736B7500496E31
:102CC000666F206F6272617A6F766B61004261623B
:102CD000797374657070696E67205800426162791B
:102CE0007374657070696E67205900426162797310
:102CF00074657070696E67205A004D36303020421E
:102D0000300056796D656E69742066696C616D6519
:102D10006E74004261627973746570205A0042617A
:102D200062797374657020590042616279737465C9
:102D300070205800507275746F6B00507275746F0C
:102D40006B00507275746F6B00527963686C6F73AF
:102D5000742076656E742E00527963686C6F73749C
:102D60002076656E742E00527963686C6F737420E0
:102D700076656E742E00506F646C6F7A6B610050D4
:102D80006F646C6F7A6B6100506F646C6F7A6B610B
:102D900000547279736B6100547279736B610054E3
:102DA0007279736B6100527963686C6F737400524F
:102DB0007963686C6F737400527963686C6F7374B5
:102DC00000486C61766E69206E616269646B6100B7
:102DD0005A616872617420504C4120686F74656E4E
:102DE00064005A616872617420504C4120706F64B5
:102DF0006C6F7A005A616872617420504C410050C7
:102E000072697072617661207469736B750000007D
:102E10002110422063308440A550C660E7700881CD
:102E200029914AA16BB18CC1ADD1CEE1EFF1311244
:102E3000100273325222B5529442F772D66239931D
:102E400018837BB35AA3BDD39CC3FFF3DEE3622494
:102E5000433420040114E664C774A44485546AA56D
:102E60004BB528850995EEE5CFF5ACC58DD5533624
:102E7000722611163006D776F6669556B4465BB7BD
:102E80007AA719973887DFF7FEE79DD7BCC7C448F4
:102E9000E5588668A7784008611802282338CCC90D
:102EA000EDD98EE9AFF9488969990AA92BB9F55A84
:102EB000D44AB77A966A711A500A333A122AFDDB5D
:102EC000DCCBBFFB9EEB799B588B3BBB1AABA66C54
:102ED000877CE44CC55C222C033C600C411CAEEDAD
:102EE0008FFDECCDCDDD2AAD0BBD688D499D977E64
:102EF000B66ED55EF44E133E322E511E700E9FFFFD
:102F0000BEEFDDDFFCCF1BBF3AAF599F788F8891B2
:102F1000A981CAB1EBA10CD12DC14EF16FE1801096
:102F2000A100C230E3200450254046706760B98399
:102F30009893FBA3DAB33DC31CD37FE35EF3B102E6
:102F40009012F322D2323542145277625672EAB5A9
:102F5000CBA5A89589856EF54FE52CD50DC5E23436
:102F6000C324A01481046674476424540544DBA779
:102F7000FAB79987B8975FE77EF71DC73CD7D32686
:102F8000F2369106B01657667676154634564CD909
:102F90006DC90EF92FE9C899E9898AB9ABA94458D6
:102FA000654806782768C018E1088238A3287DCBD9
:102FB0005CDB3FEB1EFBF98BD89BBBAB9ABB754A26
:102FC000545A376A167AF10AD01AB32A923A2EFD69
:102FD0000FED6CDD4DCDAABD8BADE89DC98D267C76
:102FE000076C645C454CA23C832CE01CC10C1FEFB9
:102FF0003EFF5DCF7CDF9BAFBABFD98FF89F176EC6
:10300000367E554E745E932EB23ED10EF01E7C3C41
:103010003E5E2B3D3F2F5B5D3B2C2A225C002074E3
:103020006F6F206C6F6E6720657874727573696F4F
:103030006E2070726576656E7465640A0020636F39
:103040006C6420657874727573696F6E2070726538
:1030500076656E7465640A0048617264636F6465C6
:10306000642044656661756C742053657474696E80
:103070006773204C6F616465640A00E8030000E830
:103080000300000A000000B80B00000000484300E5
:103090000048430000004000007A430000A04200C6
:1030A00000A0420000484500001143204400204990
:1030B0000020204D333031205000504944207365AA
:1030C0007474696E67733A0A00204600204200203B
:1030D000480020204D3134352053004D6174657215
:1030E00069616C2068656174757020706172616DD2
:1030F00065746572733A0A00205A00205900202036
:103100004D323036205800486F6D65206F6666730B
:1031100065743A0A00204500205A002059002058C2
:103120000020420020540020204D32303520530032
:10313000416476616E6365643A20533C6D696E5FED
:1031400066656564726174653E20543C6D696E5FAE
:1031500074726176656C5F66656564726174653E04
:1031600020423C6D696E5F7365676D656E745F7458
:10317000696D655F6D733E20583C6D61785F78794D
:103180005F6A65726B3E205A3C6D61785F7A5F6A58
:1031900065726B3E20453C6D61785F655F6A657264
:1031A0006B3E0A0020540020520020204D32303463
:1031B000205000416363656C65726174696F6E20B5
:1031C00028756E6974732F7332293A20503C7072DF
:1031D000696E745F616363656C3E20523C72657416
:1031E000726163745F616363656C3E20543C74720A
:1031F0006176656C5F616363656C3E0A0020450023
:10320000205A0020590020204D3230312058004DE6
:103210006178696D756D20416363656C6572617479
:10322000696F6E2028756E6974732F7332293A0A9C
:1032300000204500205A0020590020204D32303314
:103240002058004D6178696D756D20666565647202
:10325000617465732028756E6974732F73293A0A37
:1032600000204500205A0020590020204D393220EE
:10327000580053746570732070657220756E6974A0
:103280003A0A0020204D3230302044300A002020FD
:103290004D3230302044002044697361626C6564B3
:1032A0000A0046696C616D656E742073657474699B
:1032B0006E67733A0020204D3134392043203B2083
:1032C000556E69747320696E2043656C73697573FC
:1032D0000A002020473231202020203B20556E69F3
:1032E000747320696E206D6D0A007A5F6D696E3AA5
:1032F0002000795F6D696E3A2000785F6D696E3AE3
:1033000020005265706F7274696E6720656E647319
:10331000746F70207374617475730A0057726974E6
:10332000696E6720746F2066696C653A20006F7063
:10333000656E206661696C65642C2046696C653A2F
:1033400020006F70656E206661696C65642C204694
:10335000696C653A200046696C652073656C65632D
:103360007465640A002053697A653A200046696CE6
:1033700065206F70656E65643A20006F70656E2021
:103380006661696C65642C2046696C653A20002092
:1033900066696C653A20004E6F7720002220706FBE
:1033A00073002220706172656E743A220053554298
:1033B000524F5554494E452043414C4C2074617244
:1033C0006765743A2200505245525553454E4F2E70
:1033D0002000747279696E6720746F2063616C6C71
:1033E000207375622D67636F64652066696C657311
:1033F000207769746820746F6F206D616E79206C1E
:103400006576656C732E204D4158206C6576656C31
:103410002069733A0043616E6E6F74206F70656E41
:1034200020737562646972200000060900FE0000C6
:1034300000000001090008FE000005080806000061
:1034400040F0C88888987810050808060000C0F881
:103450008888888888F80505050600012030F8303E
:10346000200508080600002070F820202020E00534
:1034700009090600FF2070A8A8B8888870200509EF
:10348000090600FFE080C0B0A828302828050909F7
:103490000600FFF8A88888888888A8F8050A0A0620
:1034A00000FE205050505088A8A8887003030306DF
:1034B000000340A0402020506C616E6E6572427522
:1034C0006666657242797465733A200020467265BB
:1034D00065204D656D6F72793A2000436F6D70699C
:1034E0006C65643A204F63742033312032303138B8
:1034F0000A00207C20417574686F723A2028746F2E
:103500006D3636362C20526562656C204949290A91
:1035100000323031372D30372D30342031323A30CF
:103520003000204C61737420557064617465643A96
:103530002000312E312E345F4A5333315F30323127
:103540000A004D61726C696E0020536F667477617A
:1035500072652052657365740A0020576174636850
:10356000646F672052657365740A002042726F773A
:103570006E206F75742052657365740A002045785B
:103580007465726E616C2052657365740A00506FC9
:1035900077657255700A0073746172740A006572FF
:1035A000726F722077726974696E6720746F20661B
:1035B000696C650A00456E6473746F7079202563C9
:1035C00020256320256320256300205A3A002059D6
:1035D0003A0020583A00656E6473746F7073206807
:1035E00069743A2000446F6E6520736176696E6776
:1035F0002066696C652E0A004D323900290A0020C8
:1036000062797465733B2063726320005365747440
:10361000696E67732053746F7265642028002028D8
:1036200063616C63756C6174656429210A002021F3
:103630003D2000454550524F4D20435243206D6977
:10364000736D61746368202D202873746F726564D4
:10365000292000290A002062797465733B20637277
:103660006320002073746F726564207365747469DD
:103670006E677320726574726965766564202800D0
:10368000204D61726C696E3D563339290A00284518
:103690004550524F4D3D00454550524F4D207665A7
:1036A0007273696F6E206D69736D61746368200059
:1036B00000002100240027002A002D0030003300E4
:1036C00001010000040107010A0100002200250099
:1036D00028002B002E0031003400020100000501FB
:1036E00008010B01000020002300260029002C0007
:1036F0002F00320000010000030106010901050549
:103700000505070508080808020202020A0A080857
:103710000404040401010101010101010303030385
:1037200003030303040707070C0C0C0C0C0C0C0C14
:103730000202020206060606060606060B0B0B0B25
:103740000B0B0B0B0102102020080810204010204A
:103750004080020102010804020101020408102055
:103760004080804020100804020180040201804053
:1037700020100804020108040201010204081020BC
:103780004080010204081020408000000A0B02095A
:103790000C0D0E08070304010000000000000000EB
:1037A0000000000000000000000000000000000019
:1037B00000000000000012111000000000000000D6
:1037C00000000000000000000000000000000000F9
:1037D0004572726F722077726974696E6720746FB8
:1037E00020454550524F4D210A00526573656E6465
:1037F0003A20006F6B0020746F6F206C6F6E672033
:10380000657874727573696F6E2070726576656E17
:103810007465640A0020636F6C6420657874727547
:1038200073696F6E2070726576656E7465640A00E8
:10383000627573793A2070617573656420666F7282
:1038400020696E7075740A00627573793A20706130
:103850007573656420666F7220757365720A006205
:103860007573793A2070726F63657373696E670A56
:1038700000505245525553454E4F2E20004B494C57
:103880004C20636175736564206279204B494C4C10
:1038900020627574746F6E2F70696E0A0050524505
:1038A000525553454E4F2E20004B494C4C206361DE
:1038B0007573656420627920746F6F206D7563681D
:1038C00020696E6163746976652074696D65202D69
:1038D0002063757272656E7420636F6D6D616E64C6
:1038E0003A200000C0E19FE111241FBECFEFD1E2DA
:1038F000DEBFCDBF00E00CBF13E0A0E0B2E0EEEE13
:10390000F9EE01E00BBF02C007900D92A03EB10797
:10391000D9F724E1A0EEB3E001C01D92AB32B207AB
:10392000E1F71CE1C3E7DCE100E006C021970109F3
:10393000802FFE010E9453F4C237D10780E00807B0
:10394000A9F70E94C2E20C94E6F40C9400002F92B6
:103950003F924F925F926F927F928F929F92AF921F
:10396000BF92CF92DF92EF92FF920F931F93CF936C
:10397000DF93CDB7DEB7C356D1090FB6F894DEBFDB
:103980000FBECDBF0091531220E6029F800111248B
:103990000D521F4E8091451080FF1AC0E0EFF6E2F5
:1039A00084917F013FEFE31AF30A811102C078018D
:1039B00004C00E948538F701F3CFD7018D917D01B6
:1039C000882319F00E948538F8CF8AE00E94853854
:1039D00081E090E090934A0A8093490A1092FF0395
:1039E0001092FE038FE380930E0410920D04109248
:1039F0000C0484E0EAEFF3E0DF011D928A95E9F719
:103A0000F80180810F5F1F4F8032D1F38E34C9F4EB
:103A1000818190ED980F9A3020F08D3211F08B3229
:103A200081F4DF0112969D012F5F3F4F8C918053EF
:103A30008A3010F4D901F7CFFD01119680818032D0
:103A4000D9F3F0930E14E0930D147F01BFEFEB1A3E
:103A5000FB0A10816AE270E0C7010E94AEF4009791
:103A600031F0FC01319780818032E1F311821D3405
:103A700031F1143521F1173411F1E0EFF6E28491C0
:103A80008F010F5F1F4F882321F00E948538F801B6
:103A9000F6CF60910D1470910E1481EF96E00E94A4
:103AA000634782E20E9485388AE00E94853810923E
:103AB0004A0A1092490A0E942BDF0C943334C70142
:103AC000FC01208101962032D9F320532A30A8F638
:103AD00010930E0480E090E06AE03196DF011197C8
:103AE0002C91022E000C330B20533109689FA0014A
:103AF000699F500D1124C901840F951F2081205307
:103B00002A3058F390930D0480930C04DF01319612
:103B10002C912032D9F31D34D1F48E31910591F0DE
:103B20003CF48731910571F08C31910581F40AC024
:103B30008537910564F08737910524F0803AE3E0FA
:103B40009E0729F4B093FF03A093FE037CC010925C
:103B5000FF031092FE0300910D14EE24E394F12C68
:103B6000FD0131962C91222309F46DC02132A1F47C
:103B70001D3491F48032910579F4F093FF03E093C2
:103B8000FE0363E270E0CF010E94AEF4009709F4F7
:103B900039C7DC011C9257C021542A31A0F5AF016E
:103BA000FA0130814F5F5F4F3032D1F340ED430F68
:103BB0004A3040F043ED430F423020F03B3211F0E9
:103BC0000C947632AF01622F70E0DB0133E0B595E3
:103BD000A7953A95E1F7A650BC4F2770670102C040
:103BE000CC0CDD1C2A95E2F796013C91232B2C93FB
:103BF0004115510511F0401B01C040E0DB01A0520E
:103C0000BC4F4C930AC02091FE033091FF03232B3D
:103C100021F4B093FF03A093FE03208121542A31A5
:103C200010F4DF019DCFDF01AD014F5F5F4F2C919D
:103C300020532A3010F4DA01F7CFFD0111962081CC
:103C40002032D9F3EECF80910E048D3409F4DAC618
:103C5000843511F40C943A32873409F00ECF209059
:103C60000C0430900D0424E02216310409F411C52F
:103C70004CF437FC1CCF8091690242E024163104D9
:103C800004F517C05AE52516310409F459C634F471
:103C90009CE12916310409F441C509CFABE52A1688
:103CA000310409F450C6BCE52B16310409F44FC6A3
:103CB000FECE882309F4FBCE0E9407380E9454DE12
:103CC000F6CE882309F4F3CE0E94073882E50E94DD
:103CD000FB37882309F43CC10E9499374B015C01F2
:103CE00020E030E0A9010E9422ED882309F45CC1A4
:103CF00020917D1030917E1040917F105091801066
:103D000028AB39AB4AAB5BAB8091811090918210AC
:103D1000A0918310B09184108CAB9DABAEABBFABC8
:103D200020914B0A30914C0A40914D0A50914E0A15
:103D30002CAF3DAF4EAF5FAF80914F0A9091500ACC
:103D4000A091510AB091520A88AF99AFAAAFBBAF08
:103D500068A979A98AA99BA90E9422ED81110DC0A9
:103D600028AD39AD4AAD5BAD6CA97DA98EA99FA9DF
:103D70000E9422ED882309F417C111E092E0291670
:103D8000310409F010E020E030E0A901C501B401E0
:103D90000E9422ED881F8827881F181759F020E0FD
:103DA00030E040E85FEB2C962CAF3DAF4EAF5FAFFD
:103DB0002C970AC080E090E0A0E8BFE32C968CAF7F
:103DC0009DAFAEAFBFAF2C9728A939A94AA95BA96F
:103DD0006CAD7DAD8EAD9FAD0E944BF128966CAF62
:103DE0007DAF8EAF9FAF28972CA93DA94EA95FA9A3
:103DF00068AD79AD8AAD9BAD0E944BF16B017C0142
:103E000028962CAD3DAD4EAD5FAD2897CA01B901E6
:103E10000E9487ED2B013C01A7019601C701B60165
:103E20000E9487ED9B01AC01C301B2010E944CF1DD
:103E30000E94B7F324966CAF7DAF8EAF9FAF2497EF
:103E400020E030E040E05FE30E9487ED2B013C0181
:103E5000A5019401C501B4010E9487ED4B015C01ED
:103E6000A3019201C301B2010E9487ED9B01AC0145
:103E7000C501B4010E944BF10E94B7F32C962CAD02
:103E80003DAD4EAD5FAD2C970E9487ED4B015C01BF
:103E9000C701B601905824962CAD3DAD4EAD5FAD37
:103EA00024970E9428F2A50194010E9487ED6B01DE
:103EB0007C012CAD3DAD4EAD5FAD68A979A98AA955
:103EC0009BA90E944CF120E030E040E05FE30E94BB
:103ED00087ED9B01AC01C701B6010E944CF128A9F6
:103EE00039A94AA95BA90E944BF16B017C0128AD5D
:103EF00039AD4AAD5BAD6CA97DA98EA99FA90E9481
:103F00004CF120E030E040E05FE30E9487ED2B01C0
:103F10003C0124962CAD3DAD4EAD5FAD2497289667
:103F20006CAD7DAD8EAD9FAD28970E9428F2A501A6
:103F300094010E9487ED9B01AC01C301B2010E9474
:103F40004CF12CA93DA94EA95FA90E944BF114C0C8
:103F500089E40E94FB37882329F00E9499376B017E
:103F60007C0103C0C12CD12C76018AE40E94FB376E
:103F70008823E9F00E9499376CAF7DAF8EAF9FAF79
:103F800020E030E0A901C701B6010E9422ED8111B5
:103F90001BC020E030E0A9016CAD7DAD8EAD9FADC2
:103FA0000E9422ED811110C0EAEBF6E25FC320E02F
:103FB00030E0A901C701B6010E9422ED8823A1F3D8
:103FC0001CAE1DAE1EAE1FAEA7019601505828AB09
:103FD00039AB4AAB5BAB8CAD9DADAEADBFADB058B0
:103FE0008CAB9DABAEABBFABCA01B9010E9487EDF4
:103FF0004B015C012CA93DA94EA95FA9CA01B901D9
:104000000E9487ED9B01AC01C501B4010E944CF1F7
:104010000E94B7F36C966CAF7DAF8EAF9FAF6C977D
:1040200020917D1030917E1040917F105091801032
:1040300028AF39AF4AAF5BAFA701960168AD79AD44
:104040008AAD9BAD0E944CF12C966CAF7DAF8EAFCC
:104050009FAF2C978091811090918210A091831036
:10406000B091841024968CAF9DAFAEAFBFAF2497B4
:104070002CAD3DAD4EAD5FADBC01CD010E944CF10C
:1040800060966CAF7DAF8EAF9FAF609720914B0A6B
:1040900030914C0A40914D0A50914E0A64962CAFD3
:1040A0003DAF4EAF5FAF64972C962CAD3DAD4EAD9E
:1040B0005FAD2C9764966CAD7DAD8EAD9FAD649772
:1040C0000E944BF16B017C0180914F0A9091500A44
:1040D000A091510AB091520A68968CAF9DAFAEAFD5
:1040E000BFAF689760962CAD3DAD4EAD5FAD6097AC
:1040F000BC01CD010E944BF14B015C012091851068
:10410000309186104091871050918810A0962CAF66
:104110003DAF4EAF5FAFA0976091530A7091540AC4
:104120008091550A9091560A0E944BF128966CAFE7
:104130007DAF8EAF9FAF2897A701960168A979A997
:104140008AA99BA90E9487ED2B013C01A50194013E
:104150006CA97DA98EA99FA90E9487ED9B01AC0146
:10416000C301B2010E944CF12B013C01A501940155
:1041700068A979A98AA99BA90E9487ED4B015C01D6
:10418000A70196016CA97DA98EA99FA90E9487ED20
:104190009B01AC01C501B4010E944BF1A301920146
:1041A0000E94BFF16B017C0120E030E0A9010E9478
:1041B00022ED87FF0AC02BED3FE049EC50E4C70138
:1041C000B6010E944CF16B017C0132E023163104F0
:1041D00051F42BED3FE049EC50E4C701B6010E94D9
:1041E0004BF16B017C0120E030E0A901C701B60171
:1041F0000E9422ED811126C064962CAD3DAD4EADDE
:104200005FAD649768AD79AD8AAD9BAD0E9422ED3C
:10421000811118C068962CAD3DAD4EAD5FAD68976D
:1042200024966CAD7DAD8EAD9FAD24970E9422ED9E
:10423000811108C01BEDC12E1FE0D12E19ECE12E1B
:1042400010E4F12EA70196016C966CAD7DAD8EAD9C
:104250009FAD6C970E9487ED9B01AC010E9487ED9A
:104260004B015C0128962CAD3DAD4EAD5FAD28975E
:10427000CA01B9010E9487ED9B01AC01C501B401DF
:104280000E944CF10E94B7F34B015C012FE632E132
:1042900043E85AE30E9422ED87FDE2C1C501B40163
:1042A0000E94C1F20E9495F222967FAF6EAF2297D4
:1042B000672B31F481E090E022969FAF8EAF22977A
:1042C0004090891050908A1060908B1070908C10E4
:1042D0002296AEADBFAD2297BD0180E090E00E9476
:1042E00026ED4B015C019B01AC01C701B6010E94A8
:1042F00028F268AF79AF8AAF9BAFA50194012896E9
:104300006CAD7DAD8EAD9FAD28970E9428F26C9666
:104310006CAF7DAF8EAF9FAF6C97A30192016091A0
:10432000570A7091580A8091590A90915A0A0E942E
:104330004BF1A50194010E9428F2A4966CAF7DAFC9
:104340008EAF9FAFA49728AD39AD4AAD5BADCA0122
:10435000B9010E9487ED20E030E040E05FE30E9479
:1043600087ED9B01AC0160E070E080E89FE30E9474
:104370004BF128966CAF7DAF8EAF9FAF2897A0967C
:104380002CAD3DAD4EAD5FADA09729873A874B87E9
:104390005C874D865E866F86788A60918202709116
:1043A0008302072E000C880B990B0E9428ED2091A8
:1043B0009F023091A0024091A1025091A2020E945E
:1043C00087ED2AE037ED43E25CE30E9487ED6496D7
:1043D0006CAF7DAF8EAF9FAF64970E947AD49B0184
:1043E000AC0128533F4F4F4F5F4F68962CAF3DAF06
:1043F0004EAF5FAF689748A859A86AA87BA8222447
:104400002394312CB9E1DB2E22964EAD5FAD22977D
:104410004215530509F410C10E94958B0E947AD46D
:10442000DC01CB0168962CAD3DAD4EAD5FAD68971C
:10443000821B930BA40BB50BB7FD11C00E947AD45D
:104440009B01AC0128533F4F4F4F5F4F68962CAFF5
:104450003DAF4EAF5FAF689780E00E948BDADA9491
:10446000DD2009F441C02CA93DA94EA95FA92896D9
:104470006CAD7DAD8EAD9FAD28970E9487ED4B0151
:104480005C019201A30168AD79AD8AAD9BAD0E943C
:1044900087EDA50194010E944CF17B018C019201F2
:1044A000A30128966CAD7DAD8EAD9FAD28970E947F
:1044B00087ED4B015C012CA93DA94EA95FA968AD10
:1044C00079AD8AAD9BAD0E9487ED9B01AC01C50122
:1044D000B4010E944BF12B013C01C701D8018CAB08
:1044E0009DABAEABBFAB4DC0B10180E090E00E9490
:1044F00026ED28AD39AD4AAD5BAD0E9487ED4B018D
:104500005C010E9425F26B017C01C501B4010E948F
:10451000ADF34B015C01A701960168A979A98AA9AD
:104520009BA90E9487ED2B013C012CAD3DAD4EAD0A
:104530005FADC501B4010E9487EDA30192010E9405
:104540004CF12B013C01A501940168A979A98AA924
:104550009BA90E9487ED4B015C012CAD3DAD4EAD9A
:104560005FADC701B6010E9487ED9B01AC01C5019B
:10457000B4010E944BF16CAB7DAB8EAB9FABF9E10C
:10458000DF2E9201A3012C966CAD7DAD8EAD9FAD5B
:104590002C970E944CF169837A838B839C832CA98E
:1045A0003DA94EA95FA960966CAD7DAD8EAD9FAD66
:1045B00060970E944CF16D837E838F8398876C9601
:1045C0002CAD3DAD4EAD5FAD6C9769857A858B8521
:1045D0009C850E944CF169877A878B879C87A4967B
:1045E0002CAD3DAD4EAD5FADA4976D857E858F85BD
:1045F00098890E944CF16D877E878F87988BCE01BA
:1046000001960E94BDDDC0907A096496ECACFDACC9
:104610000EAD1FAD64979E01235F3F4FAE01475F14
:104620005F4FBE016B5F7F4FCE0101960E9495AC3C
:104630003FEF231A330AE8CEC0907A096496ECACB7
:10464000FDAC0EAD1FAD649727E53AE043E55AE0B7
:104650006FE47AE08BE49AE00E9495AC0E94A93561
:104660000E947A3824CA0E948538F80184918F010B
:104670000F5F1F4F8111F7CFE1E4F2E084918F01CA
:104680000F5F1F4F882309F412CA0E948538F80172
:10469000F5CF80E50E94FB37882329F00E94593727
:1046A0006B017C0103C0C12CD12C760183E50E94F3
:1046B000FB37882361F00E94993720E030E04AE719
:1046C00054E40E9487ED0E9495F26B017C010E94E8
:1046D000B63F0E947A3880910F1490911014A091E7
:1046E0001114B0911214C80ED91EEA1EFB1E80913F
:1046F0002602811105C060E087E592E00E94747097
:104700000E947AD4DC01CB018C199D09AE09BF0946
:10471000B7FFCDC980E00E948BDAF2CF0E94B63F8E
:1047200080919F029091A002A091A102B091A2025B
:104730008093080490930904A0930A04B0930B0497
:1047400080918202909183029093070480930604E3
:1047500084E690E090938302809382020E947A38EC
:1047600081E080938E0288E50E94CC37C82E89E5CF
:104770000E94CC37082F8AE50E94CC37D82EC11072
:1047800005C0011105C011E0182705C0011102C0C4
:1047900010E001C0182F0E949F35111105C0C110F3
:1047A00003C0002309F4A0C020E030E040EA50E458
:1047B0006091390A70913A0A80913B0A90913C0AC3
:1047C0000E944CF14B015C016093530A7093540AB0
:1047D0008093550A9093560A209185103091861047
:1047E00040918710509188100E9472F318160CF0B7
:1047F00068C040909F025090A0026090A10270900B
:10480000A202E7EEEE2EE3E2FE2EF70185919591EE
:10481000A591B49180939F029093A002A093A102CE
:10482000B093A2028092851090928610A092871079
:10483000B09288100E94CC3585E595E5A5E0B3E4FB
:1048400080939F029093A002A093A102B093A20232
:104850000E94CC358090530A9090540AA090550A3B
:10486000B090560AA5019401609185107091861050
:1048700080918710909188100E9472F31816BCF4F2
:10488000F70185919591A591B49180939F029093A2
:10489000A002A093A102B093A202809285109092F0
:1048A0008610A0928710B09288100E94CC350E948A
:1048B000B63F40929F025092A0026092A102709275
:1048C000A202111105C0C11003C0011107C00CC024
:1048D00080E090E00E94BE761123B9F381E090E081
:1048E0000E94BE76111102C0DD2021F082E090E02E
:1048F0000E94BE760E94F23680916A1080938E02EA
:104900008091080490910904A0910A04B0910B04CD
:1049100080939F029093A002A093A102B093A20261
:104920008091060490910704909383028093820201
:104930000E947A3883E0809325020E94D55AB7C836
:1049400010920504B4C881E080930504B0C885E4E2
:104950000E94FB37B82E811102C00E94B63F58EA70
:10496000852E52E0952E6DE7C62E60E1D62E7DE3B2
:10497000E72E7AE0F72E00E010E0A12CD4018D9113
:104980004D010E94FB37882339F1F60140805180A8
:10499000628073800E949937D6016D937D938D93C9
:1049A0009C9313970330C1F0A30192010E944BF135
:1049B0009B01AC01F70160817181828193810E942A
:1049C0004CF1D7016D937D938D939C931397C80100
:1049D0000E94EB35AA24A3940F5F1F4FB4E0CB0EC7
:1049E000D11CE4E0EE0EF11C0430110539F6AA20CA
:1049F00019F00E94F23603C0B1100E945CC10E94FF
:104A0000D55A55C880910C0490910D0482379105B8
:104A100009F42AC70CF0E5C08B34910509F417C4DA
:104A20000CF071C08831910509F48CC2D4F5823143
:104A3000910509F447C6D4F497FD39C88230910531
:104A40000CF4AEC1419709F032C860E088E992E009
:104A50000E9474705F988A989FB7F89480910801BB
:104A60008E7F809308019FBF129821C885319105E0
:104A700009F45EC234F4449709F019C8E4EBF2E09B
:104A800017C28631910509F457C2479709F00FC83C
:104A900040E061E08091FE039091FF030E9487C493
:104AA00006C88C31910509F4C8C2A4F48A31910575
:104AB00009F467C20CF084C210921B0D0E949AC1C7
:104AC00085EC92E09093850C8093840C0E9499363B
:104AD0000C94571D8F31910509F403C344F44E978C
:104AE00011F00C94571D0E94DA3D0C94571D803232
:104AF000910509F4ACC28A9711F00C94571D0E94DD
:104B00008C380C94571D8836910509F4ACC30CF011
:104B100040C08235910509F4CCC514F58D3491055A
:104B200009F49DC30CF497C38135910511F00C94E1
:104B3000571D0E9477870E94B63F0E94ADDD1092FC
:104B40006E1210926D1268EE73E080E090E00E94A9
:104B5000446F60E081EA93E00E9474700C94571DEA
:104B60008435910509F4AEC50CF4A7C585359105CA
:104B700009F4DFC58C35910511F00C94571D98EAA6
:104B8000C92E92E0D92E2DE8E22E20E1F22E10E07F
:104B9000EBC58D36910509F4D3C49CF48A36910592
:104BA00009F4EAC40CF486C48B36910509F403C5F4
:104BB0008C36910511F00C94571D10927F020C94C5
:104BC000571D8F36910509F4B8C30CF4A3C3803781
:104BD000910509F420C48137910509F420C40C948F
:104BE000571D833D910509F4D7C00CF05EC0813993
:104BF000910509F41FC71CF58737910509F409C70A
:104C000074F48537910509F4C4C60CF0CBC683371C
:104C1000910511F00C94571DEAE8F4E02EC689378F
:104C2000910509F401C70CF4F8C68D37910509F414
:104C3000D4C48C38910509F41FC40C94571D893CC9
:104C4000910509F4C6C774F48E3B910509F47CC440
:104C5000883C910509F469C78B39910511F00C94D2
:104C6000571D45C48C3C910509F4ECC764F48B3C9A
:104C7000910511F00C94571D78EAE72E72E0F72E9B
:104C800003ED19E0CFC78D3C910511F40C948E2EE5
:104C90008E3C910511F00C94571D68EAE62E62E0F7
:104CA000F62E00E010E00C94FB2E8039F1E09F0717
:104CB00011F40C940E3184F58C3231E0930711F429
:104CC0000C94FF2F8CF48D3D910511F40C94B82FAA
:104CD000823E910511F40C94D32F8C3D910511F077
:104CE0000C94571D0C94AA2F8E3251E0950711F4A5
:104CF0000C94B93014F40C9425308F32B1E09B073A
:104D000011F40C940A318336914011F00C94571D24
:104D1000EAEBF6E20C941532863FF1E09F0711F4BE
:104D20000C94FE31FCF48C3A31E0930711F40C94AE
:104D300012314CF48A39914011F00C94571D0E94A5
:104D40007C5A0C94571D843FA1E09A0711F40C94EF
:104D5000FA31853F914011F00C94571D0E945DCAB5
:104D60000C94571D8835E2E09E0711F40C940F3225
:104D70003CF4873F914011F40C9402320C94571D7F
:104D8000803A33E0930709F49FC1873E934011F4C2
:104D90000C9428320C94571DE0EFF6E20C94122F7D
:104DA000A090FE03B090FF0380E50E94FB378823AC
:104DB00059F00E9459376B017C0111E0672B682B79
:104DC000692B31F410E004C010E0C12CD12C760125
:104DD00083E50E94FB378823F1F00E94993720E099
:104DE00030E04AE754E40E9487ED0E9495F26B019F
:104DF0007C01111112C0672B682B692B71F4A1146F
:104E0000B10459F0D5018C91882339F061E0C501D6
:104E10000E94917007C0112391F360E086E892E050
:104E20000E94747083E090E090934A0A8093490A4C
:104E300081E08093120A0E94B63F0E947A38C11422
:104E4000D104E104F104E1F080910F149091101469
:104E5000A0911114B0911214C80ED91EEA1EFB1EA7
:104E60000E947AD4DC01CB018C199D09AE09BF09DF
:104E7000B7FF1AC08091120A81110C94873214C0B6
:104E80008091120A882321F080E00E948BDAF8CF0B
:104E900080911B0D60E0882319F085E792E002C045
:104EA00081E692E00E9474701092120A0C94571DD1
:104EB00084918F010F5F1F4F882321F00E94853856
:104EC000F801F6CF1092A10F1092A00F8CE49DE094
:104ED0000E9413A68BE1ECE4FDE0DE011596019043
:104EE0000D928A95E1F780914A0D90914B0D9C832C
:104EF0008B8386EC92E09A83898340E050E0BE0188
:104F00006F5F7F4F8EE593E00E946BC2CE010196EA
:104F10000E94A177E5EAF2E084918F010F5F1F4FB5
:104F2000882311F40C94571D0E948538F801F4CFA2
:104F30000E9401840C94571D10921B0D10921C0DA1
:104F40000C94571D19821A821B821C8218A219A266
:104F50001AA21BA280915B0A882341F040E0BE01A7
:104F60006F5F7F4FCE0180960E94607580911C0D0F
:104F7000882319F081E080931B0D0E94B4C10C942A
:104F8000571D80911C0D882311F40C94571D83E547
:104F90000E94FB37882311F40C94571D0E94693737
:104FA000AB01BC014093970F5093980F6093990FFA
:104FB00070939A0F86EE9EE00E9420D80C94571DA5
:104FC00080911C0D811103C0ECEDF2E02AC0EAECE7
:104FD000F2E084918F010F5F1F4F882321F00E9420
:104FE0008538F801F6CF6091970F7091980F8091F6
:104FF000990F90919A0F4AE00E94A0398FE20E9487
:1050000085386091930F7091940F8091950F9091D6
:10501000960F4AE00E94A0398AE00E9485380C94DD
:10502000571D84918F010F5F1F4F882311F40C943B
:10503000571D0E948538F801F4CF40E060E0809170
:10504000FE039091FF030E9487C40C94571D80912A
:105050001B0D81110E94B63FE090FE03F090FF030C
:1050600080E50E94CC37182F882319F00E948A37D8
:10507000182F80911C0D882311F40C94571D412F7B
:1050800061E0C7010E9487C483E50E94FB37882343
:1050900081F00E946937AB01BC014093970F509398
:1050A000980F6093990F70939A0F86EE9EE00E947E
:1050B00020D880911C0D882319F081E080931B0D6E
:1050C00011110C94571D59CF8091FE039091FF034D
:1050D00021E020931A0D40E060E00E9487C40C9408
:1050E000571D0E9449857B018C0120E831E541E094
:1050F00050E00E9410F1C9016DE671E00E9410F4C9
:105100004B015C01C801B70120E13EE040E050E006
:105110000E9410F1CA01B90128E130E040E050E0FE
:105120000E9410F1762E672EC62ED72E4CE3242E29
:10513000312C412C512CC801B701A20191010E94D0
:1051400010F1F62EE72ECA01B901A20191010E94C9
:1051500010F1CB018E010F5F1F4F8114910499F064
:10516000EF92FF927F936F936F927F92BF92AF9275
:105170009F928F9285E193E09F938F931F930F935C
:105180000E94BCEC13C0A114B104B1F0EF92FF92E5
:105190007F936F936F927F92BF92AF9285E093E07F
:1051A0009F938F931F930F930E94BCEC0FB6F894BC
:1051B000DEBF0FBECDBF30C0CD2879F0EF92FF9299
:1051C0007F936F936F927F9289EF92E09F938F937B
:1051D0001F930F930E94BCECE9CF892B69F0EF92EB
:1051E000FF927F936F9381EF92E09F938F931F9332
:1051F0000F930E94BCECDACFEF92FF928DEE92E01B
:105200009F938F931F930F930E94BCEC0F900F906E
:105210000F900F900F900F9060E0C8010E94917066
:10522000E0EFF6E284917F019FEFE91AF90A882303
:1052300021F00E948538F701F5CFB80189E293E0AB
:105240000E9463478AE00E9485380C94571D0E9493
:10525000B4C10C94571D0E949AC10C94571D0E9412
:10526000F2800C94571D88E690E00E940B3A811161
:105270000C94571D8091451083FF02C00C94571D5C
:1052800083E50E94FB37882309F440C00E949937C8
:105290000E9490F270936C1260936B1280E00E94F7
:1052A0002B870E94993720E030E04AEA52E40E94BE
:1052B00022ED18163CF00E94F28060E08DE393E04E
:1052C0000E9474700E9499372091130A3091140A39
:1052D0004091150A5091160A0E9472F31816B4F400
:1052E0008EE193E09F938F938091000490E001966C
:1052F0009F938F9386E393E09F938F931F920E94D7
:105300000B810FB6F894DEBF0FBECDBF0E940E48D2
:105310000C94571D8EE40E94FB37882311F40C94E3
:10532000571D0E946937609304147093051480938D
:105330000614909307140C94571D83E50E94FB37C5
:10534000882319F00E94793701C080E080934510CE
:10535000E0EFF6E284918F010F5F1F4F811103C0D0
:10536000EFE5F3E004C00E948538F801F3CF8491A3
:105370008F010F5F1F4F882321F00E948538F801AD
:10538000F6CF80914510811103C0EBE5F3E034C006
:1053900031E5C32E33E0D32EE12CF12C20E08091B7
:1053A000451090E00E2C02C0959587950A94E2F77F
:1053B00080FF17C0BB24B394B20E222319F08CE2F5
:1053C0000E948538F60185919491FC0184918F01AA
:1053D0000F5F1F4F882321F00E948538F801F6CF18
:1053E0002B2DBFEFEB1AFB0AE2E0CE0ED11CF5E04D
:1053F000EF16F104A1F60AC084918F010F5F1F4FD1
:10540000882321F00E948538F801F6CF8AE00E94B7
:1054100085380C94571D86E693E00E94A97783E5B2
:105420000E94FB37811103C0E0EFF6E20DC00E943D
:1054300079378093A3028D3310F40C94571D8CE3BD
:105440008093A3020C94571D84918F010F5F1F4F0F
:10545000882321F00E948538F801F6CF4091A302FD
:1054600050E060E070E082E793E00E9410478AE03D
:105470000E9485380C94571D8091451083FF02C00F
:105480000C94571D83E50E94FB37882311F40C947C
:10549000571D0E9499370E9490F26739710514F0E8
:1054A00066E970E070936A12609369120E94DF8669
:1054B0000C94571D89E690E00E940B3A811111C0AF
:1054C000E9E7F3E084918F010F5F1F4F882321F0FC
:1054D0000E948538F801F6CF0E94945B8AE00E9412
:1054E000853810924A0A1092490A0C94333483E5A5
:1054F0000E94FB37882311F40C94571D0E947937C2
:1055000080930C148D3318F08CE380930C140E945C
:105510007AD46B017C0120910C1430E0A8EEB3E04A
:105520000E943CF1C60ED71EE81EF91EC092081458
:10553000D0920914E0920A14F0920B140C94571DA7
:105540000E94C95F0C94571D8091451083FF02C0D3
:105550000C94571D60E081E993E00E94747083E52C
:105560000E94FB378CAF8111D7C782E50E94FB37C1
:105570008111D2C70C94571D83E50E94FB37882305
:1055800039F00E9469378B016F3F710519F010F0F7
:105590000FEF10E080E50E94FB37811106C01093E9
:1055A0006E1200936D120C94571D0E947937811171
:1055B0000C94571DF4CF80E50E94FB37811106C083
:1055C00010926E1210926D120C94571D0E94693742
:1055D000672B11F00C94571DF3CF8CE40E94CC374D
:1055E000882319F00E94993704C060E070E080E0E1
:1055F00090EC6CA77DA78EA79FA78AE50E94FB373A
:10560000882319F00E94993703C060E070E0CB0155
:1056100020E030E040E251E40E944CF168A779A715
:105620008AA79BA788E50E94FB37882319F00E9470
:10563000993703C060E070E0CB0120E030E040E447
:1056400050E40E944CF16CA37DA38EA39FA389E537
:105650000E94FB37882319F00E94993703C060E04D
:1056600070E0CB0120E030E040E450E40E944CF1D7
:1056700068A379A38AA39BA319821A821B821C8226
:1056800080915B0A81110C94571DC12CE12C8E0175
:105690000F5F1F4F9E01205E3F4FAE014C5D5F4F7D
:1056A000BE01685D7F4FCE018C960E94C6730C943C
:1056B000571D109204040C94571D81E0809304043C
:1056C0000C94571D83E50E94FB378823A1F00E94AC
:1056D000993720E030E04AE754E40E9487ED0E94C9
:1056E00095F26093A4027093A5028093A602909312
:1056F000A7020C94571D88E50E94CC3781110C94A9
:10570000E23389E50E94CC3781110C94E2338AE5BB
:105710000E94CC3781110C94E23385E40E94CC378F
:1057200081110C94E2330E94B63F0E94ADDD0C94CF
:10573000571D83E50E94CC37882311F40C94571D24
:105740000E94993720E030E04AE754E40E9487ED58
:105750000E9495F26093131470931414809315149F
:10576000909316140C94571DD6018D916D010E94D3
:10577000CC37882309F46DC0133009F063C00E9450
:1057800099374B015C0120E030E040EA51E40E948F
:1057900022ED87FF4EC0A501940160919910709190
:1057A0009A1080919B1090919C100E9428F22B01DE
:1057B0003C019B01AC0160911E1070911F10809103
:1057C0002010909121100E9487ED60931E1070931D
:1057D0001F108093201090932110A30192016091DB
:1057E000DF097091E0098091E1099091E2090E943E
:1057F00087ED6093DF097093E0098093E10990934E
:10580000E20960915D1070915E1080915F1090913F
:1058100060100E9426EDA30192010E9487ED0E9474
:1058200095F260935D1070935E1080935F1090937B
:1058300060108092991090929A10A0929B10B09252
:105840009C1007C00E949937F7016083718382839F
:1058500093831F5FF4E0EF0EF11C143009F084CF46
:105860000E943E480C94571D0E94B63F0E94D55A94
:105870000C94571D0E948538F80184918F010F5FA9
:105880001F4F8111F7CFECE7F4E003C00E94853889
:10589000F80184918F010F5F1F4F8111F7CFE5E66B
:1058A000F4E003C00E948538F80184918F010F5FF6
:1058B0001F4F8111F7CFE5E5F4E003C00E94853862
:1058C000F80184918F010F5F1F4F8111F7CFE4E43E
:1058D000F4E003C00E948538F80184918F010F5FC6
:1058E0001F4F8111F7CFE3E3F4E003C00E94853836
:1058F000F80184918F010F5F1F4F8111F7CFE4E210
:10590000F4E003C00E948538F80184918F010F5F95
:105910001F4F8111F7CFEFE0F4E003C00E948538FC
:10592000F80184918F010F5F1F4F8111F7CFE9EFCD
:10593000F3E003C00E948538F80184918F010F5F66
:105940001F4F8111F7CFE4EEF3E003C00E948538CA
:10595000F80184918F010F5F1F4F8111F7CFE7ECA2
:10596000F3E003C00E948538F80184918F010F5F36
:105970001F4F8111F7CFEFEAF3E084918F010F5FA2
:105980001F4F882311F40C94571D0E948538F8018D
:10599000F4CF60E08091FE039091FF030E9491702C
:1059A0000C94571D85E40E94CC37882381F00E9417
:1059B0008A37882361F0E0EFF6E284918F010F5F70
:1059C0001F4F882321F00E948538F801F6CF81E42B
:1059D0000E94CC37882381F00E948A37882361F0A7
:1059E000E7E5F5E084918F010F5F1F4F882321F0D9
:1059F0000E948538F801F6CF0091FE031091FF0355
:105A0000D8018D918D01882309F400CD0E9485383D
:105A1000F7CF0E9496BB0C94571D81E080938E02B5
:105A200080936A100C94571D10928E0210926A1087
:105A30000C94571D83E50E94FB37882319F00E94C0
:105A4000693702C060E070E08B0111270230110558
:105A5000DCF0EAEBF6E284918F010F5F1F4F8111BA
:105A600003C0EBE5F5E004C00E948538F801F3CFF0
:105A700084918F010F5F1F4F882311F40C94571DE1
:105A80000E948538F801F4CF88E40E94FB37882310
:105A9000A9F00E9469376A3A71053CF06530B1E0BF
:105AA0007B072CF064E071E002C06AEA70E0F80164
:105AB000EE0FFF1FED53F64F7183608386E40E9463
:105AC000FB378823A9F00E946937F801EE0FFF1F0A
:105AD000E953F64F718360836F3F710519F014F03D
