:100000000C94A01C0C94D11C0C94D11C0C94D11CED
:100010000C94D11C0C94D11C0C94D11C0C94D11CAC
:100020000C94D11C0C94D11C0C94D11C0C94D11C9C
:100030000C94D11C0C94D11C0C94D11C0C94D11C8C
:100040000C94D11C0C9480350C94D11C0C94D11CB4
:100050000C94D11C0C94D11C0C94C3590C946CD8E6
:100060000C94D11C0C947CBC0C94D11C0C94D11C11
:100070000C94D11C0C94D11C0C94D11C0C94D11C4C
:100080000C94D11C0C94D11C0C94D11C0C94D11C3C
:100090000C94D11C0C94D11C0C94D11C0C94D11C2C
:1000A0000C94D11C0C94D11C0C94D11C0C94D11C1C
:1000B0000C94D11C0C94D11C0C94D11C0C94D11C0C
:1000C0000C94D11C0C94D11C0C94D11C0C94D11CFC
:1000D0000C94D11C0C94D11C0C94D11C0C94D11CEC
:1000E0000C94D11C909495949A94A494AE942795D2
:1000F000B894C094C894D294DC94E694F594FF9498
:100100002795099513951D9579D4C9D201D3B3D4F8
:1001100001D301D301D301D301D301D301D301D33F
:1001200001D301D301D301D301D301D301D301D32F
:1001300001D301D301D301D301D301D301D301D31F
:1001400001D301D3AED401D301D301D301D301D361
:1001500001D301D301D387D401D301D301D301D378
:1001600001D301D301D301D301D301D3CAD4FED229
:1001700023D626D615D619D61FD65DD62AD62ED684
:1001800034D638D63CD642D646D64AD65DD650D698
:1001900054D658D6084AD73B3BCE016E84BCBFFD2F
:1001A000C12F3D6C74319ABD56833DDA3D00C77F47
:1001B00011BED9E4BB4C3E916BAAAABE00000080E0
:1001C0003F05A84CCDB2D44EB93836A9020C50B96F
:1001D000918688083CA6AAAA2ABE000000803F009B
:1001E0004E414E494E495459494E46CDCCCC3D0A1C
:1001F000D7233C17B7D13877CC2B329595E6241FFF
:10020000B14F0A000020410000C84200401C4620B7
:10021000BCBE4CCA1B0E5AAEC59D74434F4D4D55C6
:100220004E49434154494F4E0044525952554E0095
:100230004552524F525300494E464F004543484F96
:100240000047322F47332062616420706172616D14
:1002500065746572730A00557370616E6F2E2E2E71
:1002600000526562656C2049492070726970726144
:1002700076656E2E004F626E6F766F76616E6920C6
:100280007469736B750043656B616E69206E6120E4
:10029000757A69762E2E2E005A61646E7920706F01
:1002A0006879622E00456E642066696C65206C6911
:1002B00073740A00426567696E2066696C65206C1C
:1002C0006973740A004D31323500534420707269ED
:1002D0006E74696E67206279746520004E6F7420B9
:1002E0005344207072696E74696E670A00256973E1
:1002F0000025696D20256973002569682025696DD1
:100300002025697300256964202569682025696DA9
:10031000202569730025697920256964202569688D
:100320002025696D20256973005072696E742074F0
:10033000696D653A20004525692025730052656284
:10034000656C2049492070726970726176656E2E05
:10035000003C023702300229021B026F666600442D
:10036000454255473A00505245525553454E4F2E3F
:1003700020004D3131332053006F6B0052656265B0
:100380006C204949205679702E004361703A454DE2
:10039000455247454E43595F5041525345523A30BA
:1003A0000A004361703A434153455F4C4947485402
:1003B0005F4252494748544E4553533A300A00432E
:1003C00061703A544F47474C455F4C494748545336
:1003D0003A300A004361703A534F465457415245F0
:1003E0005F504F5745523A300A004361703A4C45CE
:1003F00056454C494E475F444154413A300A004308
:1004000061703A5A5F50524F42453A300A00436198
:10041000703A4155544F4C4556454C3A300A0043CA
:1004200061703A5052494E545F4A4F423A310A0085
:100430004361703A50524F47524553533A300A0085
:100440004361703A4155544F5245504F52545F5496
:10045000454D503A310A004361703A454550524F7C
:100460004D3A310A004649524D574152455F4E417F
:100470004D453A4D61726C696E20312E312E345FDC
:100480004A5333315F3032302028476974687562CF
:100490002920534F555243455F434F44455F5552C2
:1004A0004C3A68747470733A2F2F67697468756278
:1004B0002E636F6D2F4D61726C696E4669726D7738
:1004C0006172652F4D61726C696E2050524F544FAE
:1004D000434F4C5F56455253494F4E3A312E3020D0
:1004E0004D414348494E455F545950453A52656223
:1004F000656C2049492045585452554445525F4344
:100500004F554E543A3120555549443A6365646518
:10051000326132662D343161322D343734382D3921
:100520006231322D6335356336326633363766666F
:100530000A002F2F20007A5F6D696E3A2000795FE4
:100540006D696E3A2000785F6D696E3A20005265E1
:10055000706F7274696E6720656E6473746F70205B
:100560007374617475730A004D31343520533C69DE
:100570006E6465783E206F7574206F662072616EC0
:1005800067652028302D31290A0053657474696E1F
:10059000672054726176656C20416363656C657297
:1005A0006174696F6E3A200053657474696E6720D8
:1005B0005265747261637420416363656C65726136
:1005C00074696F6E3A200053657474696E672050C9
:1005D00072696E7420416363656C65726174696FE2
:1005E0006E3A200053657474696E67205072696EAC
:1005F0007420616E642054726176656C204163637F
:10060000656C65726174696F6E3A2000205A002033
:100610005900580020204D61783A2000205A0020CF
:100620005900580020204D696E3A20005A61700030
:1006300056797000536F667420656E6473746F70C2
:10064000733A2000000136372603FF3C3D380EFF89
:100650002E303E12FFFF0C0809FFFFFF1A1C18FF87
:10066000FF08440AFF43FFFFFFFFFFFF20643A003B
:1006700020693A0020703A0020643A0020693A006C
:1006800020703A0043290A0061626C656420286D7D
:10069000696E2074656D702000436F6C642065780E
:1006A0007472756465732061726520004F667365AE
:1006B0007479206E6173746176656E79004572722B
:1006C0003A20546F6F206661722100546F6F20666C
:1006D00061722066726F6D207265666572656E6309
:1006E0006520706F696E740A004E6F2063617365D8
:1006F000206C696768740A004163746976652045F7
:10070000787472756465723A2000556E6B6E6F77FF
:100710006E20636F6D6D616E643A20220024F4D404
:100720003050C38E20C2A24017828B7011127A9172
:100730000D816CD90AA861E108C758660761514369
:10074000061E4B5D05C145A7041A411104093D98D9
:1007500003713931034036DB0265339102D43054E2
:1007600002802E1D02632CEE01752AC501B028A05F
:1007700001102781018F2564012B244B01E02234D5
:1007800001AC211F018D200D01801FFC00841EED96
:1007900000971DDF00B81CD200E61BC600201BBC62
:1007A00000641AB200B219A8000A19A0006A1899C8
:1007B00000D117910040178B00B516840031167ECA
:1007C00000B31579003A157300C7146F0058146A06
:1007D00000EE1366008813630025135E00C7125BEA
:1007E000006C12570015125400C111510070114FC6
:1007F0000021114B00D61049008D104700461044CF
:100800000002104200C00F4000800F3E00420F3C2B
:1008100000060F3B00CB0E3800930E37005C0E3500
:1008200000270E3400F30D3200C10D3100900D3061
:1008300000600D2E00320D2D00050D2C00D90C2B63
:1008400000AE0C2900850C29005C0C2700350C2714
:10085000000E0C2600E80B2400C40B2400A00B2380
:10086000007D0B23005A0B2100390B2100180B20AF
:1008700000F80A1F00D90A1E00BB0A1E009D0A1DAF
:1008800000800A1D00630A1C00470A1B002C0A1B7B
:1008900000110A1A00F7091A00DD091900C4091924
:1008A00000AB091900920917007B091800630917AA
:1008B000004C09160036091600200916000A091511
:1008C00000F5081500E0081400CC081400B808145E
:1008D00000A4081400900813007D0812006B081390
:1008E00000580812004608120034081100230811AD
:1008F000001208110001081100F0071000E00710B5
:1009000000D0071000C0071000B0070F00A10710AB
:100910000091070E0083070F0074070F0065070E94
:100920000057070E0049070E003B070D002E070E6B
:100930000020070D0013070D0006070D00F9060C37
:1009400000ED060D00E0060C00D4060C00C8060CF5
:1009500000BC060C00B0060C00A4060B0099060CA7
:10096000008D060B0082060B0077060B006C060B51
:100970000061060A0057060B004C060A0042060AF0
:100980000038060A002E060A0024060A001A060A83
:10099000001006090007060A00FD050900F4050914
:1009A00000EB050900E2050900D9050900D0050999
:1009B00000C7050900BE050900B5050800AD05081A
:1009C00000A50509009C050800940508008C050891
:1009D00000840508007C050800740508006C050704
:1009E00000650508005D050700560508004E05076F
:1009F00000470507004005080038050700310507D6
:100A0000002A050700230507001C05060016050738
:100A1000000F0507000805060002050700FB040695
:100A200000F5040700EE040600E8040600E20407EF
:100A300000DB040600D5040600CF040600C9040646
:100A400000C3040600BD040600B7040600B1040597
:100A500000AC040600A6040600A00405009B0406E2
:100A60000095040500900406008A0405008504052D
:100A700000800406007A0405007504050070040572
:100A8000006B04050066040500610405005C0405B4
:100A90000057040500520405004D040500480405F4
:100AA00000430405003E0404003A04050035040533
:100AB00000300404002C040500270404002304056E
:100AC000001E0404001A04040016040500110404A6
:100AD000000D0404000904050004040400000404DB
:100AE00000FC030400F8030400F4030400F0030412
:100AF00000EC030400E8030400E4030400E0030442
:100B000000DC030400D8030400D4030400D0030471
:100B100000CC030400C8030300C503030024F4044D
:100B2000D9201BC40C5C0E9804C4095F02650771D0
:100B300001F405F900FB04B30048048700C1036910
:100B4000005803550003034500BE023A00840231F9
:100B50000053022A002902250004022000E4011C9F
:100B600000C8011900AF0117009801140084011397
:100B700000710110006101100051010E0043010DD0
:100B80000036010B002B010B0020010B00150109A1
:100B9000000C01090003010800FB000800F3000835
:100BA00000EB000700E4000600DE000600D80006A7
:100BB00000D2000600CC000500C7000500C20005F9
:100BC00000BD000400B9000400B5000400B1000439
:100BD00000AD000400A9000400A5000300A200036A
:100BE000009F0004009B0003009800030095000292
:100BF0000093000300900003008D0002008B0003AF
:100C000000880002008600020084000300810002C8
:100C1000007F0002007D0002007B000200790002DC
:100C200000770001007600020074000200720001EB
:100C300000710002006F0002006D0001006C0002F4
:100C4000006A0001006900020067000100660001FF
:100C50000065000100640002006200010061000103
:100C600000600001005F0002005D0001005C000107
:100C7000005B0001005A000100590001005800010A
:100C8000005700010056000100550001005400010A
:100C90000053000000530001005200010051000108
:100CA00000500001004F0001004E0000004E000106
:100CB000004D0001004C0001004B0000004B000102
:100CC000004A0001004900010048000000480001FE
:100CD00000470001004600000046000100450000FA
:100CE00000450001004400010043000000430001F2
:100CF00000420000004200010041000000410001EC
:100D000000400001003F0000003F0001003E0000E5
:100D1000003E0001003D0000003D0001003C0000DD
:100D2000003C0000003C0001003B0000003B0001D3
:100D3000003A0000003A00010039000000390001CB
:100D400000380000003800000038000100370000C3
:100D500000370001003600000036000000360001B8
:100D600000350000003500000035000100340000AF
:100D700000340000003400010033000000330000A4
:100D80000033000100320000003200000032000198
:100D9000003100000031000000310001003000008F
:100DA0000030000000300001002F0000002F000084
:100DB000002F0000002F0001002E0000002E000078
:100DC000002E0001002D0000002D0000002D00006D
:100DD000002D0001002C0000002C0000002C000061
:100DE000002C0001002B0000002B0000002B000055
:100DF000002B0001002A0000002A0000002A000049
:100E0000002A00010029000000290000002900003C
:100E1000002900000029000100280000002800002F
:100E20000028000000280000002800010027000022
:100E30000027000000270000002700000027000115
:100E4000002600000026000000260000002600000A
:100E500000260001002500000025000000250000FC
:100E600000250000002500000025000100240000EE
:100E700000240000002400000024000000240001E1
:100E800000230000002300000023000000230000D6
:100E900000230000002300000023000100220000C6
:100EA00000220000002200000022000000220000BA
:100EB00000220001002100000021000000210000AC
:100EC000002100000021000000210000002100019D
:100ED0000020000000200000002000000020000092
:100EE0000020000000200000002000000020000181
:100EF000001F0000001F0000001F0000001F000076
:100F0000001F0000001F0000001F0001001E000065
:100F1000001E0000001E0000001E0000004D3834BE
:100F200020582059205A2045006265640A002C2070
:100F300073797374656D2073746F707065642120AC
:100F40004865617465725F49443A20004D3530321E
:100F50000A4D353030004F626E6F766974207679B5
:100F600063686F7A69004E6163697374206E6173A0
:100F7000746176656E6900496E69632E204545503F
:100F8000524F4D00556C6F7A6974206E61737461B5
:100F900076656E690046696C616D656E7400506FB0
:100FA000687962005465706C6F746100486C61769A
:100FB0006E69206E616269646B61004D333033206D
:100FC00055312045256920532569005A61687261B1
:100FD0007420414253206E617374005A61687261DB
:100FE0007420504C41206E6173740050494420417C
:100FF00075746F74756E6500504944204175746F47
:1010000074756E6500504944204175746F74756E37
:1010100065005049442D44005049442D4400504936
:10102000442D49005049442D49005049442D500059
:101030005049442D500020082046616B7400200860
:101040002046616B74002008204D61780020082044
:101050004D6178002008204D6178002008204D69FE
:101060006E002008204D696E002008204D696E003A
:10107000567970005A6170004175746F7465706CB8
:101080006F746100527963686C6F73742076656E5B
:10109000742E00527963686C6F73742076656E7479
:1010A0002E00527963686C6F73742076656E742EAF
:1010B00000506F646C6F7A6B6100506F646C6F7A74
:1010C0006B6100506F646C6F7A6B6100547279735E
:1010D0006B6100547279736B6100547279736B6148
:1010E000004F766C6164616E6900556C6F7A69744B
:1010F000206E6173746176656E6900506F646C6F09
:101100007A6B6100506F646C6F7A6B6100506F6432
:101110006C6F7A6B6100547279736B6100547279F1
:10112000736B6100547279736B6100527963686C00
:101130006F73742076656E742E00527963686C6FDD
:1011400073742076656E742E00527963686C6F73C9
:10115000742076656E742E005465706C6F74610037
:101160005654726176206D696E0056547261762015
:101170006D696E005654726176206D696E00566D11
:10118000696E00566D696E00566D696E00566D6130
:1011900078204500566D6178204500566D617820B5
:1011A0004500566D6178205A00566D6178205A00CE
:1011B000566D6178205A00566D6178205900566D41
:1011C0006178205900566D6178205900566D61781C
:1011D000205800566D6178205800566D617820586F
:1011E00000506F687962001FFFFFFFFFFFFF600084
:1011F00000000001FF400000000000FF8000000030
:1012000000007F83CF00000C303F87FF80000C3050
:101210001F867980000C000F8C30C7838C30E78CE0
:1012200030CFC7CC31F38C30DCECEC33B98C30D818
:101230006C6C33198C30D06C0C33198C30D86C0C2E
:1012400033198C30DC6C0E3B198C30CF7C079F1926
:101250008C30C77C038F1940000000000002600042
:1012600000000000061FFFFFFFFFFFF825753A256D
:1012700030327500253032753A25303275002575CB
:101280006420253032753A25303275005A005900F5
:1012900058000920000000000000000000000000CD
:1012A000007FFFE0000000000000000000000000E0
:1012B0007000E0000000000000000000000000617D
:1012C000F86000000000000000000000000041F88D
:1012D0002000000000000000000000000040F0209E
:1012E000000000000000000000000000406020003E
:1012F00000000000000000000000005801A07F80F6
:10130000000000000000004104005C63A0FFC0007A
:101310000000000000002082005EF7A0FFC0000077
:1013200000000000002082005EF7A0FFC000000067
:10133000000000004104005C63A07F80000000000A
:101340000000008208005801A07F8000000000001B
:101350000001041000406020FFC0000000000000F9
:101360000104100040F020FFC00000000000000059
:1013700082080041F820FFC000000000000000418A
:10138000040061F8603F0000000000000000000061
:10139000007000E01E0000000000000001FFFF8060
:1013A0007FFFE00C0000000000000001FFFF800054
:1013B00000000000000000000000000000007FFFAF
:1013C000E00000000000000000000000007000E0ED
:1013D000000000000000000000000000630C60003E
:1013E0000000000000000000000000470E20000088
:1013F000000000000000000000004F0F200000006F
:101400000000000000000000005F0FA000000000CE
:1014100000000000000000005E07A07F80000000C8
:1014200000000000410400406020FFC000000000F8
:1014300000000020820040F020FFC00000000000FB
:10144000000020820040F020FFC0000000000000EB
:10145000004104004060207F800000000000000088
:101460008208005E07A07F800000000000000104E9
:1014700010005F0FA0FFC00000000000000104107A
:10148000004F0F20FFC00000000000000082080095
:10149000470E20FFC0000000000000004104006370
:1014A0000C603F0000000000000000000000700021
:1014B000E01E0000000000000001FFFF807FFFE051
:1014C0000C0000000000000001FFFF800000002071
:1014D00020547279736B613A200020006E61206E97
:1014E0006168726174692074722E0043656B656A6D
:1014F00074652070726F73696D005052494E5420AC
:10150000504155534544002020547279736B613A21
:10151000200020006E6168726174692074727973B2
:101520006B79004B6C696B6E6574652070726F002F
:101530005052494E542050415553454400202054A8
:101540007279736B613A2000746C616369746B6FBC
:101550002E2E2E006120737469736B6E65746500A6
:10156000566C6F7A74652066696C616D656E740087
:101570005052494E54205041555345440020205468
:101580007279736B613A200066696C616D656E7487
:1015900075006E61207A61766564656E69004365E9
:1015A0006B656A74652070726F73696D0050524983
:1015B0004E542050415553454400202054727973B5
:1015C0006B613A200066696C616D656E7475006EC2
:1015D00061207679746C6163656E690043656B6543
:1015E0006A74652070726F73696D005052494E5471
:1015F00020504155534544007469736B75006E610A
:1016000020706F6B7261636F76616E690043656B0A
:10161000656A74652070726F73696D005052494E2F
:1016200054205041555345440020645465726D2048
:101630000020695465726D200020705465726D2021
:1016400000204F757470757420003A20496E7075D3
:10165000742000205049445F4245445F4445425550
:101660004720004368796261207A61687269766117
:101670006E690048656174696E67206661696C65B2
:1016800064004368796261207A6168726976616E8C
:10169000690048656174696E67206661696C65649C
:1016A0000070012C0190012701B0012201C0011D31
:1016B00001F00118011002130130020E016002094D
:1016C0000190020401C002FF000003FA004003F58C
:1016D000008003F000D003EB002004E6007004E17A
:1016E00000E004DC004005D700C005D2004006CD74
:1016F00000D006C8008007C3003008BE00F008B95B
:1017000000C009B400B00AAF00B00BAA00D00CA50D
:1017100000000EA000500F9B00C0109600501291C8
:101720000000148C00C0158700B0178200B0197D2E
:1017300000D01B7800001E730040206E00902269CC
:1017400000F024640040275F0090295A00E02B55E8
:1017500000102E500020304B0010324600E0334184
:101760000090353C001037370070383200A0392D1A
:1017700000B03A2800A03B2300603C1E00103D1939
:1017800000903D1400103E0F00703E0A00C03E0560
:1017900000003F0000403FFBFF803FF6FFC03FF1ED
:1017A000FF5445504C4F544E4920534B4F4B00541F
:1017B0006865726D616C2052756E61776179004E5B
:1017C000495A2E205445504C2E20504F444C2E0048
:1017D0004E495A4B41205445504C4F5441004D49BD
:1017E0004E54454D50207472696767657265640098
:1017F0005659532E205445504C2E20504F444C2EB9
:10180000005659534F4B41205445504C4F544100C2
:101810004D415854454D5020747269676765726533
:1018200064004B617274612076796A6D7574610031
:101830004B6172746120766C6F7A656E6100000690
:101840000900FE070192032120FFFF08FF07FF00A8
:1018500000000600000107070602008080808080EB
:101860000080030202060105A0A00507070600008C
:101870005050F850F850500507070600002078A097
:101880007028F020050707060000C0C81020409807
:10189000180507070600006090A040A890680203A2
:1018A00003060104C04080030707060100204080B2
:1018B0008080402003070706010080402020204050
:1018C0008005050506000120A870A820050505066D
:1018D00000012020F820200203030602FFC0408000
:1018E000050101060003F8020202060200C0C0055D
:1018F00005050600010810204080050707060000C6
:101900007088888888887003070706010040C040F7
:10191000404040E00507070600007088087080809E
:10192000F8050707060000F81020100808F0050762
:101930000706000010305090F81010050707060049
:1019400000F880F00808887005070706000070801E
:1019500080F0888870050707060000F8081020202E
:1019600020200507070600007088887088887005A9
:1019700007070600007088887808087002050506C9
:101980000200C0C000C0C00206060602FFC0C000C0
:10199000C04080040707060000102040804020104F
:1019A000050303060002F800F8040707060100809B
:1019B00040201020408005070706000070880810AE
:1019C00020002005070706000070880868A8A87096
:1019D000050707060000708888F8888888050707CB
:1019E000060000F08888F08888F0050707060000E8
:1019F00070888080808870050707060000F088885E
:101A0000888888F0050707060000F88080F080804D
:101A1000F8050707060000F88080F0808080050741
:101A200007060000708880B88888700507070600E0
:101A300000888888F8888888010707060200808067
:101A40008080808080050707060000381010101085
:101A500090600507070600008890A0C0A090880548
:101A60000707060000808080808080F80507070651
:101A7000000088D8A888888888050707060000889D
:101A800088C8A89888880507070600007088888895
:101A9000888870050707060000F08888F08080803D
:101AA00005070706000070888888A8906805070762
:101AB000060000F08888F0A090880507070600005F
:101AC000788080700808F0050707060000F82020DD
:101AD000202020200507070600008888888888883D
:101AE0007005070706000088888888885020050749
:101AF000070600008888888888A850050707060020
:101B000000888850205088880507070600008888CC
:101B10008850202020050707060000F80810204004
:101B200080F8030707060100E08080808080E005E0
:101B30000505060001804020100803070706010084
:101B4000E02020202020E005030306000420508828
:101B5000050101060000F8020202060205804005A8
:101B6000050506000070087888780507070600005C
:101B70008080B0C88888F005050506000070808068
:101B800088700507070600000808689888887805A7
:101B900005050600007088F880700507070600003C
:101BA0003048E0404040400506060600FF70888847
:101BB0007808700507070600008080B0C88888880C
:101BC00001070706020080008080808080030808EB
:101BD0000601FF200020202020A040040707060067
:101BE00000808090A0C0A090030707060100C040BD
:101BF00040404040E0050505060000D0A8A8A8A880
:101C0000050505060000B0C888888805050506009A
:101C10000070888888700506060600FFF08888F046
:101C200080800506060600FF788888780808050584
:101C300005060000B0C8808080050505060000701C
:101C4000807008F00407070600004040E040404074
:101C50003005050506000088888898680505050692
:101C6000000088888850200505050600008888A89F
:101C7000A850050505060000885020508805060676
:101C80000600FF888888780870050505060000F8BA
:101C9000102040F803070706010020404080404024
:101CA0002001070706020080808080808080030773
:101CB00007060100804040204040800502020600E7
:101CC000026890000000060000000000060000000E
:101CD00000000600000000000600000000000600F2
:101CE00000000000060000000000060000000000E8
:101CF00006000000000006000000000006000000D2
:101D000000000600000000000600000000000600C1
:101D100000000000060000000000060000000000B7
:101D200006000000000006000000000006000000A1
:101D30000000060000000000060000000000060091
:101D40000000000006000000000006000000000087
:101D50000600000000000600000000000600000071
:101D60000000060000000000060000000000060061
:101D70000000000006000000000006000000000057
:101D80000600000000000600000000000600000140
:101D90000707060200800080808080800507070614
:101DA00000002070A8A0A8702005070706000030DA
:101DB0004040E04050A805050506000088705070BE
:101DC00088050707060000885020F820F820010742
:101DD00007060200808080008080800508080600D9
:101DE000003048205050209060030101060107A0F8
:101DF000050707060000F888B8B8B888F80507078F
:101E0000060001700878887800F8050505060001CD
:101E10002850A05028050303060001F80808020214
:101E2000020602064080050707060000F888A88819
:101E300098A8F8050101060006F80404040600034A
:101E4000609090600507070600002020F820200021
:101E5000F804050506000360902040F00305050620
:101E60000003E020E020E0020202060206408005B6
:101E700008080600FF8888888898E880800507079A
:101E800006000078989878181818020202060202D4
:101E9000C0C00202020602FF4080030505060003DF
:101EA00040C04040E0050707060001708888887040
:101EB00000F8050505060001A0502850A0050707F9
:101EC0000600008890A858B8080805070706000013
:101ED0008890B848982038050808060000C040C01F
:101EE00048D8380808050707060000200020408071
:101EF00088700508080600004020007088F888886F
:101F00000508080600001020007088F88888050879
:101F1000080600002050007088F888880508080628
:101F200000006890007088F888880508080600009E
:101F30005000708888F8888805080806000020503E
:101F4000207088F888880507070600003860A0B868
:101F5000E0A0B80508080600FF708880808870201F
:101F600060050808060000402000F880F080F805B1
:101F70000808060000081000F880F080F80508083E
:101F8000060000205000F880F080F80507070600E2
:101F9000005000F880F080F8030808060100804037
:101FA00000E0404040E0030808060100204000E057
:101FB000404040E003080806010040A000E0404027
:101FC00040E0030707060100A000E0404040E005B4
:101FD0000707060000704848E848487005080806EA
:101FE000000068900088C8A89888050808060000C6
:101FF0004020708888888870050808060000102036
:1020000070888888887005080806000020500070D5
:102010008888887005080806000068900070888825
:10202000887005080806000050007088888888704D
:10203000050505060001885020508805080806009F
:10204000FF1070A8A8A8A870400508080600004066
:102050002088888888887005080806000010208875
:102060008888888870050808060000205000888845
:1020700088887005080806000050008888888888CD
:102080007005080806000010208850202020200538
:1020900009090600FFC040704848704040E004084D
:1020A000080601FF609090A09090E0800508080667
:1020B00000004020007008788878050808060000B5
:1020C0001020007008788878050808060000205065
:1020D000007008788878050808060000689000708D
:1020E000087888780507070600005000700878888F
:1020F00078050808060000205020700878887805C8
:102100000606060000D02878A0A85005060606009E
:10211000FF708088702060050808060000402000DD
:102120007088F8807005080806000010200070888C
:10213000F880700508080600002050007088F880BC
:102140007005070706000050007088F880700308CB
:102150000806010080400040C04040E00308080637
:10216000010020400040C04040E003080806010094
:1021700040A00040C04040E0030707060100A00067
:1021800040C04040E0050707060000A040A01078CE
:102190008870050808060000689000B0C888888824
:1021A000050808060000402000708888887005082F
:1021B000080600001020007088888870050808064E
:1021C000000020500070888888700508080600000C
:1021D0006890007088888870050707060000500026
:1021E00070888888700505050600012000F8002029
:1021F0000507070600FF1070A8A8A870400508088A
:1022000006000040200088888898680508080600B5
:1022100000102000888888986805080806000020BB
:1022200050008888889868050707060000500088D5
:10223000888898680509090600FF102000888888AA
:10224000F808700407070601FFC04060506040E0D6
:102250000508080600FF50008888887808705072CA
:102260006F766564746520726573657400544953B4
:102270004B2E205A4153544156454E4100507269ED
:102280006E7465722068616C7465642E206B696C75
:102290006C28292063616C6C6564210A00000000D1
:1022A000000000000000000000000048420000485C
:1022B0004200004040000000005761726E696E6786
:1022C0003A20486F6D696E672042756D70204469D1
:1022D0007669736F72203C20310A0002020400000C
:1022E000A0400000A0400000004000004843000063
:1022F000484300003443FFFFFF4D36303020486F25
:1023000074656E6420746F6F20636F6C6420746FEB
:10231000206368616E67652066696C616D656E74C7
:102320000A0043616E6E6F7420656E74657220736F
:1023300075626469723A2000022E2E00486C617644
:102340006E69206E616269646B61005465706C6FC8
:102350007461206D61783A20313530005465706CBD
:102360006F7461206D696E3A203500544265643A9D
:102370004550434F53203130304B005465706C6FE3
:102380007461206D61783A20323735005465706C85
:102390006F7461206D696E3A20350054303A2045E3
:1023A00050434F53203130304B004E61702E207A15
:1023B00064726F6A3A2047656E6572696300507295
:1023C0006F746F6B6F6C3A20312E300052796368F6
:1023D0006C6F73743A203131353230300052414DD8
:1023E000505320312E3400457874727564657279CB
:1023F0003A203100687474703A2F2F6D61726C69E5
:102400006E66772E6F726700526562656C2049496F
:1024100000323031372D30372D30342031323A30E0
:102420003000312E312E345F4A5333315F30323039
:10243000004D61726C696E005465726D6973746FE2
:10244000727900496E666F206F2064657363650062
:10245000496E666F206F207469736B61726E6500E0
:10246000486C61766E69206E616269646B61002000
:1024700020547279736B613A200020005A706574A1
:10248000004D696E2E207465706C6F7461206A65F2
:10249000203137302E004368796261207A6168729A
:1024A0006976616E69004A65737465207679746C2B
:1024B00061636974004F626E6F766974207469732A
:1024C0006B00524553554D45204F5054494F4E5384
:1024D0003A002020547279736B613A200076796D4E
:1024E000656E792066696C616D656E7475006E61EC
:1024F000207A6168616A656E690043656B656A741C
:10250000652070726F73696D005052494E542050AF
:102510004155534544002020547279736B613A2031
:102520000066696C616D656E7475006E6120767908
:1025300073756E7574690043656B656A74652070A8
:10254000726F73696D005052494E5420504155537B
:1025500045440053442063617264206F6B0A006F2E
:1025600070656E526F6F74206661696C65640A00F5
:10257000766F6C756D652E696E6974206661696C25
:1025800065640A004572726F723A00534420696EA6
:102590006974206661696C0A006175746F25692E23
:1025A00067004D3234004D323320257300656E7163
:1025B00075657565696E672022006563686F3A000E
:1025C000416D6178204500416D6178204500416D85
:1025D0006178205A00416D6178205A00416D617820
:1025E000205900416D6178205900416D6178205873
:1025F00000416D6178205800412D7072656A657ADE
:102600006400412D7072656A657A6400412D7265BF
:102610007472616B7400412D72657472616B740029
:102620005A727963686C005A727963686C00506FF3
:102630006879620056652D6A65726B0056652D6A71
:1026400065726B0056652D6A65726B00567A2D6A4D
:1026500065726B00567A2D6A65726B0056792D6A29
:1026600065726B0056792D6A65726B0056792D6A1A
:1026700065726B0056782D6A65726B0056782D6A0C
:1026800065726B0056782D6A65726B00506F6879C1
:102690006200456B726F6B752F6D6D00456B726FCD
:1026A0006B752F6D6D005A6B726F6B752F6D6D00B2
:1026B0005A6B726F6B752F6D6D00596B726F6B7506
:1026C0002F6D6D00596B726F6B752F6D6D00586BB0
:1026D000726F6B752F6D6D00586B726F6B752F6D10
:1026E0006D00506F687962004B726F6B752F6D6D66
:1026F000004A65726B00416B63656C65726163656E
:1027000000527963686C6F7374004F766C6164611A
:102710006E690046696C2E205072756D2E004669F8
:102720006C2E205072756D2E00567970005A6170B3
:102730000045206E61206D6D33004F766C616461E1
:102740006E69005A61687261742041425320686F5B
:1027500074656E64005A616872617420414253204E
:10276000706F646C6F7A005A6168726174204142C4
:1027700053005072697072617661207469736B7571
:10278000004D343238005A616872617420504C41F7
:10279000005A63686C616469740056796D656E698E
:1027A000742066696C616D656E74005A616872614F
:1027B00074204142530055766F6C6E6974206D6FC2
:1027C000746F7279004D3834004E617374617669AC
:1027D00074206F667365747900446F6D75206F7334
:1027E00061205A00473238205A00446F6D75206FBF
:1027F0007361205900473238205900446F6D7520AD
:102800006F7361205800473238205800446F6D6F55
:1028100076736B6120706F7A6963650047323800A8
:10282000506F73756E6F7574206F737900486C61AB
:10283000766E69206E616269646B6100506F7375BA
:102840006E6F7574205800506F73756E6F757420BD
:102850005900506F73756E6F7574205A0045787407
:10286000727564657200506F73756E6F7574206F4A
:1028700020302C316D6D00506F73756E6F75742044
:102880006F20316D6D00506F73756E6F7574206FB2
:102890002031306D6D00506F73756E6F7574206FE1
:1028A000737900457874727564657200506F737542
:1028B0006E6F7574205A00506F73756E6F7574204B
:1028C0005900506F73756E6F757420580045787499
:1028D000727564657200506F73756E6F7574205AEF
:1028E00000506F73756E6F7574205900506F73755B
:1028F0006E6F757420580050726970726176612035
:102900007469736B7500506F646C6F7A6B612068CB
:102910006F746F76612E0020573A005A61687269B1
:1029200076616E6920706F646C2E00205A3A002028
:10293000593A0020436F756E7420583A0020453A8A
:1029400000205A3A0020593A00583A004B642000BF
:1029500023646566696E65202044454641554C54A4
:102960005F004B69200023646566696E6520204422
:10297000454641554C545F004B702000236465660A
:10298000696E65202044454641554C545F005049CE
:1029900044204175746F74756E652066696E697345
:1029A000686564212050757420746865206C6173BB
:1029B00074204B702C204B6920616E64204B642086
:1029C000636F6E7374616E74732066726F6D2062D4
:1029D000656C6F7720696E746F20436F6E666967F0
:1029E00075726174696F6E2E680A00504944204107
:1029F00075746F74756E65206661696C65642120FD
:102A000074696D656F75740A00504944204175748E
:102A10006F74756E65206661696C6564212054650C
:102A20006D706572617475726520746F6F2068696E
:102A300067680A00204B643A2000204B693A200066
:102A4000204B703A20000A20436C61737369632045
:102A5000504944200A002054753A2000204B753A12
:102A60002000206D61783A2000206D696E3A2000C8
:102A700020643A200020626961733A200020496E88
:102A800076616C6964206578747275646572200083
:102A900000000000000000000000000000004843AB
:102AA000000048430000344346696C652064656C4F
:102AB000657465643A0044656C6574696F6E206680
:102AC00061696C65642C2046696C653A20006F7002
:102AD000656E206661696C65642C2046696C653A98
:102AE000200050726F7465637465642050696E0ACB
:102AF00000202F002042403A0020403A005A6168EE
:102B00007261746920686F746F766F2E0020573A77
:102B10000045256920257300526562656C2049498E
:102B20002070726970726176656E2E005469736BE5
:102B300020706F7A6173746176656E004D31323545
:102B400000004D3234005469736B207A72757365DE
:102B50006E005A61646E61205344206B617274612F
:102B6000005469736B6E6F7574207A205344005A59
:102B700061737461766974207469736B004F626E5F
:102B80006F766974207469736B004F207469736B7E
:102B900061726E6500506F7A61737461766974203A
:102BA0007469736B004F766C6164616E690050727A
:102BB000697072617661207469736B7500446F6C23
:102BC0006164656E69207469736B7500496E666F28
:102BD000206F6272617A6F766B6100426162797315
:102BE00074657070696E6720580042616279737411
:102BF000657070696E67205900426162797374650F
:102C00007070696E67205A004D36303020423000B7
:102C100056796D656E69742066696C616D656E7458
:102C2000004261627973746570205A004261627972
:102C30007374657020590042616279737465702005
:102C40005800507275746F6B00507275746F6B0022
:102C5000507275746F6B00527963686C6F73742077
:102C600076656E742E00527963686C6F737420768B
:102C7000656E742E00527963686C6F73742076658C
:102C80006E742E00506F646C6F7A6B6100506F64CD
:102C90006C6F7A6B6100506F646C6F7A6B6100547B
:102CA0007279736B6100547279736B61005472793D
:102CB000736B6100527963686C6F7374005279634F
:102CC000686C6F737400527963686C6F737400483A
:102CD0006C61766E69206E616269646B61005A6135
:102CE0006872617420504C4120686F74656E640096
:102CF0005A616872617420504C4120706F646C6F2F
:102D00007A005A616872617420504C4100507269B7
:102D10007072617661207469736B750020746F6FD7
:102D2000206C6F6E6720657874727573696F6E20A2
:102D300070726576656E7465640A0020636F6C64FA
:102D400020657874727573696F6E20707265766530
:102D50006E7465640A0000002110422063308440D4
:102D6000A550C660E770088129914AA16BB18CC15A
:102D7000ADD1CEE1EFF13112100273325222B552D1
:102D80009442F772D662399318837BB35AA3BDD3AA
:102D90009CC3FFF3DEE36224433420040114E664A1
:102DA000C774A44485546AA54BB528850995EEE5FA
:102DB000CFF5ACC58DD55336722611163006D776B1
:102DC000F6669556B4465BB77AA719973887DFF74A
:102DD000FEE79DD7BCC7C448E5588668A778400879
:102DE000611802282338CCC9EDD98EE9AFF948899A
:102DF00069990AA92BB9F55AD44AB77A966A711A11
:102E0000500A333A122AFDDBDCCBBFFB9EEB799BE9
:102E1000588B3BBB1AABA66C877CE44CC55C222C60
:102E2000033C600C411CAEED8FFDECCDCDDD2AAD39
:102E30000BBD688D499D977EB66ED55EF44E133EF0
:102E4000322E511E700E9FFFBEEFDDDFFCCF1BBF89
:102E50003AAF599F788F8891A981CAB1EBA10CD163
:102E60002DC14EF16FE18010A100C230E32004506B
:102E7000254046706760B9839893FBA3DAB33DC3DE
:102E80001CD37FE35EF3B1029012F322D2323542BB
:102E9000145277625672EAB5CBA5A89589856EF56E
:102EA0004FE52CD50DC5E234C324A014810466740B
:102EB000476424540544DBA7FAB79987B8975FE7BE
:102EC0007EF71DC73CD7D326F2369106B01657665B
:102ED0007676154634564CD96DC90EF92FE9C89946
:102EE000E9898AB9ABA94458654806782768C018AB
:102EF000E1088238A3287DCB5CDB3FEB1EFBF98B1E
:102F0000D89BBBAB9ABB754A545A376A167AF10AFA
:102F1000D01AB32A923A2EFD0FED6CDD4DCDAABD2D
:102F20008BADE89DC98D267C076C645C454CA23C4A
:102F3000832CE01CC10C1FEF3EFF5DCF7CDF9BAFFD
:102F4000BABFD98FF89F176E367E554E745E932E9A
:102F5000B23ED10EF01E7C3C3E5E2B3D3F2F5B5DB2
:102F60003B2C2A225C00505245525553454E4F2E61
:102F700020005A4153544156454E4F2E2000507266
:102F8000696E7465722073746F7070656420647507
:102F90006520746F206572726F72732E2046697897
:102FA00020746865206572726F7220616E6420758E
:102FB0007365204D39393920746F207265737461DF
:102FC00072742E202854656D706572617475726517
:102FD0002069732072657365742E205365742069AF
:102FE00074206166746572207265737461727469AD
:102FF0006E67290A004E6F204C696E65204E756D14
:10300000626572207769746820636865636B7375A5
:103010006D2C204C617374204C696E653A20004E13
:103020006F20436865636B73756D207769746820E2
:103030006C696E65206E756D6265722C204C6173D3
:1030400074204C696E653A2000636865636B737524
:103050006D206D69736D617463682C204C617374AD
:10306000204C696E653A20004C696E65204E756D86
:10307000626572206973206E6F74204C61737420D6
:103080004C696E65204E756D6265722B312C204C3B
:10309000617374204C696E653A20004D3131300007
:1030A0004D3331004D383420582059205A204500E6
:1030B00053442072656164206572726F720A004425
:1030C0006F6E65207072696E74696E672066696CD8
:1030D000650A0048617264636F64656420446566D4
:1030E00061756C742053657474696E6773204C6FDE
:1030F000616465640A00E8030000E80300000A0058
:103100000000B80B000000004843000048430000E6
:10311000004000007A430000A0420000A0420000EE
:1031200048450000114320440020490020204D3331
:10313000303420500020440020490020204D3330FE
:10314000312050005049442073657474696E677370
:103150003A0A0020460020420020480020204D313D
:1031600034352053004D6174657269616C20686567
:103170006174757020706172616D65746572733A07
:103180000A00205A0020590020204D3230362058A5
:1031900000486F6D65206F66667365743A0A00209B
:1031A0004500205A00205900205800204200205499
:1031B0000020204D323035205300416476616E632B
:1031C00065643A20533C6D696E5F66656564726143
:1031D00074653E20543C6D696E5F74726176656CF7
:1031E0005F66656564726174653E20423C6D696E20
:1031F0005F7365676D656E745F74696D655F6D7330
:103200003E20583C6D61785F78795F6A65726B3EED
:10321000205A3C6D61785F7A5F6A65726B3E20452B
:103220003C6D61785F655F6A65726B3E0A00205491
:103230000020520020204D32303420500041636382
:10324000656C65726174696F6E2028756E69747340
:103250002F7332293A20503C7072696E745F61633B
:1032600063656C3E20523C726574726163745F6189
:103270006363656C3E20543C74726176656C5F617B
:103280006363656C3E0A00204500205A0020590007
:1032900020204D3230312058004D6178696D756DB8
:1032A00020416363656C65726174696F6E20287577
:1032B0006E6974732F7332293A0A00204500205A30
:1032C0000020590020204D3230332058004D6178C5
:1032D000696D756D2066656564726174657320281B
:1032E000756E6974732F73293A0A00204500205ABD
:1032F0000020590020204D39322058005374657049
:10330000732070657220756E69743A0A0020204D32
:103310003230302044300A0020204D3230302044FA
:10332000002044697361626C65640A0046696C61DF
:103330006D656E742073657474696E67733A0020EE
:10334000204D3134392043203B20556E6974732061
:10335000696E2043656C736975730A0020204732DB
:1033600031202020203B20556E69747320696E2027
:103370006D6D0A0057726974696E6720746F2066FC
:10338000696C653A20006F70656E206661696C65D6
:10339000642C2046696C653A20006F70656E20666B
:1033A00061696C65642C2046696C653A2000466949
:1033B0006C652073656C65637465640A00205369ED
:1033C0007A653A200046696C65206F70656E6564A9
:1033D0003A20006F70656E206661696C65642C2010
:1033E00046696C653A20002066696C653A20004E9B
:1033F0006F7720002220706F730022207061726549
:103400006E743A2200535542524F5554494E45204E
:1034100043414C4C207461726765743A22005052EB
:1034200045525553454E4F2E2000747279696E6790
:1034300020746F2063616C6C207375622D67636FFD
:1034400064652066696C6573207769746820746FA1
:103450006F206D616E79206C6576656C732E204DE2
:103460004158206C6576656C2069733A0043616E43
:103470006E6F74206F70656E207375626469722060
:1034800000290A002062797465733B20637263200F
:103490000053657474696E67732053746F7265644A
:1034A000202800202863616C63756C617465642951
:1034B000210A0020213D2000454550524F4D204318
:1034C0005243206D69736D61746368202D202873E9
:1034D000746F726564292000290A0020627974657E
:1034E000733B2063726320002073746F72656420E5
:1034F00073657474696E677320726574726965763A
:103500006564202800204D61726C696E3D56333928
:10351000290A0028454550524F4D3D00454550521F
:103520004F4D2076657273696F6E206D69736D61A2
:10353000746368200000060900FE0000000000011E
:10354000090008FE000005080806000040F0C888D1
:1035500088987810050808060000C0F888888888D0
:1035600088F80505050600012030F8302005080818
:103570000600002070F820202020E0050909060040
:10358000FF2070A8A8B8888870200509090600FFE8
:10359000E080C0B0A8283028280509090600FFF8F7
:1035A000A88888888888A8F8050A0A0600FE20509E
:1035B00050505088A8A8887003030306000340A059
:1035C000402020506C616E6E657242756666657251
:1035D00042797465733A20002046726565204D6516
:1035E0006D6F72793A2000436F6D70696C65643A53
:1035F000204F637420333120323031380A00207C70
:1036000020417574686F723A2028746F6D363636B3
:103610002C20526562656C204949290A00323031FC
:10362000372D30372D30342031323A303000204CB5
:1036300061737420557064617465643A2000312EA2
:10364000312E345F4A5333315F3032300A004D61DE
:10365000726C696E0020536F6674776172652052D8
:10366000657365740A00205761746368646F67202E
:1036700052657365740A002042726F776E206F7511
:10368000742052657365740A002045787465726E03
:10369000616C2052657365740A00506F77657255CE
:1036A000700A0073746172740A006572726F72201E
:1036B00077726974696E6720746F2066696C650A39
:1036C00000456E6473746F70792025632025632034
:1036D000256320256300205A3A0020593A002058DB
:1036E0003A00656E6473746F7073206869743A2071
:1036F00000446F6E6520736176696E672066696C41
:10370000652E0A004D3239000000210024002700F8
:103710002A002D00300033000101000004010701E0
:103720000A0100002200250028002B002E00310095
:10373000340002010000050108010B010000200017
:103740002300260029002C002F0032000001000079
:103750000301060109010505050507050808080814
:10376000020202020A0A0808040404040101010119
:103770000101010103030303030303030407070714
:103780000C0C0C0C0C0C0C0C0202020206060606B9
:10379000060606060B0B0B0B0B0B0B0B0102102086
:1037A0002008081020401020408002010201080477
:1037B000020101020408102040808040201008040B
:1037C0000201800402018040201008040201080464
:1037D00002010102040810204080010204081020A8
:1037E000408000000A0B02090C0D0E0807030401BB
:1037F00000000000000000000000000000000000C9
:103800000000000000000000000000000000121195
:103810001000000000000000000000000000000098
:1038200000000000000000004572726F7220777285
:103830006974696E6720746F20454550524F4D2161
:103840000A00526573656E643A20006F6B00207445
:103850006F6F206C6F6E6720657874727573696F17
:103860006E2070726576656E7465640A0020636F01
:103870006C6420657874727573696F6E2070726500
:1038800076656E7465640A00627573793A207061BA
:103890007573656420666F7220696E7075740A00B6
:1038A000627573793A2070617573656420666F7212
:1038B00020757365720A00627573793A2070726FB1
:1038C00063657373696E670A0050524552555345DC
:1038D0004E4F2E20004B494C4C206361757365643C
:1038E000206279204B494C4C20627574746F6E2FA6
:1038F00070696E0A00505245525553454E4F2E2066
:10390000004B494C4C2063617573656420627920DB
:10391000746F6F206D75636820696E61637469767A
:10392000652074696D65202D2063757272656E74F3
:1039300020636F6D6D616E643A200000A6E585E539
:1039400011241FBECFEFD1E2DEBFCDBF00E00CBF20
:1039500013E0A0E0B2E0EAEBF1EF01E00BBF02C040
:1039600007900D92A03FB107D9F724E1A0EFB3E093
:1039700001C01D92AB34B207E1F71CE1CFE9DCE1F5
:1039800000E006C021970109802FFE010E9439F84E
:10399000CE39D10780E00807A9F70E94A8E60C9469
:1039A000CCF80C9400002F923F924F925F926F924E
:1039B0007F928F929F92AF92BF92CF92DF92EF92BF
:1039C000FF920F931F93CF93DF93CDB7DEB7C3560C
:1039D000D1090FB6F894DEBF0FBECDBF00917412AF
:1039E00020E6029F800111240C501F4E8091FA0F97
:1039F00080FF1AC0EAEBF5E284917F013FEFE31A02
:103A0000F30A811102C0780104C00E94A6B8F70130
:103A1000F3CFD7018D917D01882319F00E94A6B8BC
:103A2000F8CF8AE00E94A6B881E090E090933E0A29
:103A300080933D0A10920F0410920E048FE380933E
:103A40001E0410921D0410921C0484E0EAE0F4E0CD
:103A5000DF011D928A95E9F7F80180810F5F1F4F02
:103A60008032D1F38E34C9F4818190ED980F9A3071
:103A700020F08D3211F08B3281F4DF0112969D011E
:103A80002F5F3F4F8C9180538A3010F4D901F7CFCC
:103A9000FD01119680818032D9F3F0932E14E093CA
:103AA0002D147F01BFEFEB1AFB0A10816AE270E070
:103AB000C7010E9494F8009731F0FC013197808192
:103AC0008032E1F311821D3431F1143521F11734C4
:103AD00011F1EAEBF5E284918F010F5F1F4F88230C
:103AE00021F00E94A6B8F801F6CF60912D147091D4
:103AF0002E148AE097E00E94DB3C82E20E94A6B886
:103B00008AE00E94A6B810923E0A10923D0A0E94D6
:103B100011E30C940434C701FC012081019620328A
:103B2000D9F320532A30A8F610931E0480E090E0C9
:103B30006AE03196DF0111972C91022E000C330BB5
:103B400020533109689FA001699F500D1124C901BC
:103B5000840F951F208120532A3058F390931D0421
:103B600080931C04DF0131962C912032D9F31D344F
:103B7000D1F48E31910591F03CF48731910571F0CB
:103B80008C31910581F40AC08537910564F087373F
:103B9000910524F0803AE3E09E0729F4B0930F04E6
:103BA000A0930E047CC010920F0410920E0400919A
:103BB0002D14EE24E394F12CFD0131962C91222357
:103BC00009F46DC02132A1F41D3491F480329105C5
:103BD00079F4F0930F04E0930E0463E270E0CF01F8
:103BE0000E9494F8009709F439C7DC011C9257C071
:103BF00021542A31A0F5AF01FA0130814F5F5F4FA8
:103C00003032D1F340ED430F4A3040F043ED430FE3
:103C1000423020F03B3211F00C949B33AF01622F05
:103C200070E0DB0133E0B595A7953A95E1F7A65F23
:103C3000BB4F2770670102C0CC0CDD1C2A95E2F750
:103C400096013C91232B2C934115510511F0401BFB
:103C500001C040E0DB01A051BC4F4C930AC0209151
:103C60000E0430910F04232B21F4B0930F04A09382
:103C70000E04208121542A3110F4DF019DCFDF0191
:103C8000AD014F5F5F4F2C9120532A3010F4DA01C1
:103C9000F7CFFD01119620812032D9F3EECF80912C
:103CA0001E048D3409F4DAC6843511F40C945833AB
:103CB000873409F00ECF20901C0430901D0424E0BE
:103CC0002216310409F411C54CF437FC1CCF809145
:103CD000050242E02416310404F517C05AE5251602
:103CE000310409F459C634F49CE12916310409F46D
:103CF00041C509CFABE52A16310409F450C6BCE52D
:103D00002B16310409F44FC6FECE882309F4FBCEEE
:103D10000E9412960E943AE2F6CE882309F4F3CE6E
:103D20000E94129682E50E9489B8882309F43CC15A
:103D30000E9427B84B015C0120E030E0A9010E94FD
:103D400008F1882309F45CC120919D1030919E10E8
:103D500040919F105091A01028AB39AB4AAB5BABA0
:103D60008091A1109091A210A091A310B091A410E5
:103D70008CAB9DABAEABBFAB20913F0A3091400AFC
:103D80004091410A5091420A2CAF3DAF4EAF5FAF18
:103D90008091430A9091440AA091450AB091460A45
:103DA00088AF99AFAAAFBBAF68A979A98AA99BA927
:103DB0000E9408F181110DC028AD39AD4AAD5BAD4F
:103DC0006CA97DA98EA99FA90E9408F1882309F4F6
:103DD00017C111E092E02916310409F010E020E04B
:103DE00030E0A901C501B4010E9408F1881F8827AD
:103DF000881F181759F020E030E040E85FEB2C9660
:103E00002CAF3DAF4EAF5FAF2C970AC080E090E083
:103E1000A0E8BFE32C968CAF9DAFAEAFBFAF2C97A1
:103E200028A939A94AA95BA96CAD7DAD8EAD9FAD1E
:103E30000E9431F528966CAF7DAF8EAF9FAF28976B
:103E40002CA93DA94EA95FA968AD79AD8AAD9BADFE
:103E50000E9431F56B017C0128962CAD3DAD4EAD35
:103E60005FAD2897CA01B9010E946DF12B013C0199
:103E7000A7019601C701B6010E946DF19B01AC013B
:103E8000C301B2010E9432F50E949DF724966CAFE7
:103E90007DAF8EAF9FAF249720E030E040E05FE33E
:103EA0000E946DF12B013C01A5019401C501B401F3
:103EB0000E946DF14B015C01A3019201C301B201AB
:103EC0000E946DF19B01AC01C501B4010E9431F566
:103ED0000E949DF72C962CAD3DAD4EAD5FAD2C975D
:103EE0000E946DF14B015C01C701B6019058249608
:103EF0002CAD3DAD4EAD5FAD24970E940EF6A501F1
:103F000094010E946DF16B017C012CAD3DAD4EAD75
:103F10005FAD68A979A98AA99BA90E9432F520E022
:103F200030E040E05FE30E946DF19B01AC01C7010E
:103F3000B6010E9432F528A939A94AA95BA90E94B5
:103F400031F56B017C0128AD39AD4AAD5BAD6CA993
:103F50007DA98EA99FA90E9432F520E030E040E0C3
:103F60005FE30E946DF12B013C0124962CAD3DAD29
:103F70004EAD5FAD249728966CAD7DAD8EAD9FADF7
:103F800028970E940EF6A50194010E946DF19B01F5
:103F9000AC01C301B2010E9432F52CA93DA94EA982
:103FA0005FA90E9431F514C089E40E9489B8882372
:103FB00029F00E9427B86B017C0103C0C12CD12CD1
:103FC00076018AE40E9489B88823E9F00E9427B824
:103FD0006CAF7DAF8EAF9FAF20E030E0A901C7018D
:103FE000B6010E9408F181111BC020E030E0A90158
:103FF0006CAD7DAD8EAD9FAD0E9408F1811110C0FA
:10400000E4E8F5E25FC320E030E0A901C701B601B2
:104010000E9408F18823A1F31CAE1DAE1EAE1FAE98
:10402000A7019601505828AB39AB4AAB5BAB8CADBE
:104030009DADAEADBFADB0588CAB9DABAEABBFAB25
:10404000CA01B9010E946DF14B015C012CA93DA987
:104050004EA95FA9CA01B9010E946DF19B01AC0193
:10406000C501B4010E9432F50E949DF768966CAFBD
:104070007DAF8EAF9FAF689720919D1030919E10BD
:1040800040919F105091A01028AF39AF4AAF5BAF5D
:10409000A701960168AD79AD8AAD9BAD0E9432F55E
:1040A0002C966CAF7DAF8EAF9FAF2C978091A110F7
:1040B0009091A210A091A310B091A41024968CAF5F
:1040C0009DAFAEAFBFAF24972CAD3DAD4EAD5FAD54
:1040D000BC01CD010E9432F56C966CAF7DAF8EAF06
:1040E0009FAF6C9720913F0A3091400A4091410A5E
:1040F0005091420A60962CAF3DAF4EAF5FAF6097D4
:104100002C962CAD3DAD4EAD5FAD2C9760966CAD51
:104110007DAD8EAD9FAD60970E9431F56B017C0146
:104120008091430A9091440AA091450AB091460AB1
:1041300064968CAF9DAFAEAFBFAF64976C962CAD5D
:104140003DAD4EAD5FAD6C97BC01CD010E9431F528
:104150004B015C012091A5103091A6104091A71051
:104160005091A810A0962CAF3DAF4EAF5FAFA09777
:104170006091470A7091480A8091490A90914A0AD1
:104180000E9431F528966CAF7DAF8EAF9FAF289718
:10419000A701960168A979A98AA99BA90E946DF136
:1041A0002B013C01A50194016CA97DA98EA99FA9B1
:1041B0000E946DF19B01AC01C301B2010E9432F576
:1041C0002B013C01A501940168A979A98AA99BA9A1
:1041D0000E946DF14B015C01A70196016CA97DA9BC
:1041E0008EA99FA90E946DF19B01AC01C501B4018C
:1041F0000E9431F5A30192010E94A5F56B017C019B
:1042000020E030E0A9010E9408F187FF0AC02BEDF1
:104210003FE049EC50E4C701B6010E9432F56B0162
:104220007C0132E02316310451F42BED3FE049ECE0
:1042300050E4C701B6010E9431F56B017C0120E01A
:1042400030E0A901C701B6010E9408F1811126C022
:1042500060962CAD3DAD4EAD5FAD609768AD79AD6C
:104260008AAD9BAD0E9408F1811118C064962CADF7
:104270003DAD4EAD5FAD649724966CAD7DAD8EAD1A
:104280009FAD24970E9408F1811108C01BEDC12E3B
:104290001FE0D12E19ECE12E10E4F12EA7019601BA
:1042A00068966CAD7DAD8EAD9FAD68970E946DF147
:1042B0009B01AC010E946DF14B015C0128962CAD75
:1042C0003DAD4EAD5FAD2897CA01B9010E946DF1B9
:1042D0009B01AC01C501B4010E9432F50E949DF71B
:1042E0004B015C012FE632E143E85AE30E9408F1FA
:1042F00087FDE2C1C501B4010E94A7F60E947BF6CA
:1043000022967FAF6EAF2297672B31F481E090E069
:1043100022969FAF8EAF22974090A9105090AA107E
:104320006090AB107090AC102296AEADBFAD2297EE
:10433000BD0180E090E00E940CF14B015C019B010B
:10434000AC01C701B6010E940EF668AF79AF8AAF23
:104350009BAFA501940128966CAD7DAD8EAD9FAD50
:1043600028970E940EF668966CAF7DAF8EAF9FAF18
:104370006897A301920160914B0A70914C0A809159
:104380004D0A90914E0A0E9431F5A50194010E94B8
:104390000EF6A4966CAF7DAF8EAF9FAFA49728ADFD
:1043A00039AD4AAD5BADCA01B9010E946DF120E0A3
:1043B00030E040E05FE30E946DF19B01AC0160E002
:1043C00070E080E89FE30E9431F528966CAF7DAFE6
:1043D0008EAF9FAF2897A0962CAD3DAD4EAD5FAD93
:1043E000A09729873A874B875C874D865E866F86C4
:1043F000788A60918E0270918F02072E000C880BD4
:10440000990B0E940EF12091AB023091AC024091C9
:10441000AD025091AE020E946DF12AE037ED43E209
:104420005CE30E946DF160966CAF7DAF8EAF9FAF85
:1044300060970E9460D89B01AC0128533F4F4F4FBB
:104440005F4F64962CAF3DAF4EAF5FAF649748A807
:1044500059A86AA87BA822242394312CB9E1DB2E29
:1044600022964EAD5FAD22974215530509F410C157
:104470000E94025D0E9460D8DC01CB0164962CADE5
:104480003DAD4EAD5FAD6497821B930BA40BB50B96
:10449000B7FD11C00E9460D89B01AC0128533F4F6B
:1044A0004F4F5F4F64962CAF3DAF4EAF5FAF6497F9
:1044B00080E00E9471DEDA94DD2009F441C02CA96D
:1044C0003DA94EA95FA928966CAD7DAD8EAD9FAD7F
:1044D00028970E946DF14B015C019201A30168AD28
:1044E00079AD8AAD9BAD0E946DF1A50194010E944A
:1044F00032F57B018C019201A30128966CAD7DAD54
:104500008EAD9FAD28970E946DF14B015C012CA9E7
:104510003DA94EA95FA968AD79AD8AAD9BAD0E945A
:104520006DF19B01AC01C501B4010E9431F52B0175
:104530003C01C701D8018CAB9DABAEABBFAB4DC04E
:10454000B10180E090E00E940CF128AD39AD4AAD98
:104550005BAD0E946DF14B015C010E940BF66B019B
:104560007C01C501B4010E9493F74B015C01A701D6
:10457000960168A979A98AA99BA90E946DF12B01CE
:104580003C012CAD3DAD4EAD5FADC501B4010E9407
:104590006DF1A30192010E9432F52B013C01A501AE
:1045A000940168A979A98AA99BA90E946DF14B0180
:1045B0005C012CAD3DAD4EAD5FADC701B6010E94B3
:1045C0006DF19B01AC01C501B4010E9431F56CABEA
:1045D0007DAB8EAB9FABF9E1DF2E9201A3012C9650
:1045E0006CAD7DAD8EAD9FAD2C970E9432F5698389
:1045F0007A838B839C832CA93DA94EA95FA96C96D5
:104600006CAD7DAD8EAD9FAD6C970E9432F56D8324
:104610007E838F83988768962CAD3DAD4EAD5FADA0
:10462000689769857A858B859C850E9432F56987B4
:104630007A878B879C87A4962CAD3DAD4EAD5FAD40
:10464000A4976D857E858F8598890E9432F56D8748
:104650007E878F87988BCE0101960E94A3E1C09040
:104660004C096096ECACFDAC0EAD1FAD60979E01A1
:10467000235F3F4FAE01475F5F4FBE016B5F7F4FD0
:10468000CE0101960E9420A33FEF231A330AE8CE01
:10469000C0904C096096ECACFDAC0EAD1FAD6097C0
:1046A0002BE43AE047E45AE063E47AE08FE39AE0EF
:1046B0000E9420A30E94EC960E949BB824CA0E94EC
:1046C000A6B8F80184918F010F5F1F4F8111F7CFBA
:1046D000E1E4F2E084918F010F5F1F4F882309F41A
:1046E00012CA0E94A6B8F801F5CF80E50E9489B8E9
:1046F000882329F00E94E7B76B017C0103C0C12C1D
:10470000D12C760183E50E9489B8882361F00E944C
:1047100027B820E030E04AE754E40E946DF10E949F
:104720007BF66B017C010E942E350E949BB8809124
:104730002F1490913014A0913114B0913214C80EFE
:10474000D91EEA1EFB1E80913702811105C060E070
:1047500087E592E00E94EE660E9460D8DC01CB0102
:104760008C199D09AE09BF09B7FFCDC980E00E9431
:1047700071DEF2CF0E942E358091AB029091AC0297
:10478000A091AD02B091AE028093180490931904E9
:10479000A0931A04B0931B0480918E0290918F0213
:1047A000909317048093160484E690E090938F0210
:1047B00080938E020E949BB881E080939A0288E5E4
:1047C0000E945AB8C82E89E50E945AB8082F8AE577
:1047D0000E945AB8D82EC11005C0011105C011E0C1
:1047E000182705C0011102C010E001C0182F0E9457
:1047F000E296111105C0C11003C0002309F4A0C046
:1048000020E030E040EA50E460912D0A70912E0AD9
:1048100080912F0A9091300A0E9432F54B015C0181
:104820006093470A7093480A8093490A90934A0A12
:104830002091A5103091A6104091A7105091A8107A
:104840000E9458F718160CF068C04090AB025090C8
:10485000AC026090AD027090AE02E1EBEE2EE2E2AF
:10486000FE2EF70185919591A591B4918093AB02AD
:104870009093AC02A093AD02B093AE028092A510CB
:104880009092A610A092A710B092A8100E940F9725
:1048900085E595E5A5E0B3E48093AB029093AC0287
:1048A000A093AD02B093AE020E940F978090470A8A
:1048B0009090480AA090490AB0904A0AA501940134
:1048C0006091A5107091A6108091A7109091A810EA
:1048D0000E9458F71816BCF4F70185919591A5919F
:1048E000B4918093AB029093AC02A093AD02B093CD
:1048F000AE028092A5109092A610A092A710B0923E
:10490000A8100E940F970E942E354092AB02509241
:10491000AC026092AD027092AE02111105C0C110DE
:1049200003C0011107C00CC080E090E00E94386D08
:104930001123B9F381E090E00E94386D111102C09B
:10494000DD2021F082E090E00E94386D0E94DDB70A
:1049500080918A1080939A02809118049091190492
:10496000A0911A04B0911B048093AB029093AC0207
:10497000A093AD02B093AE028091160490911704FB
:1049800090938F0280938E020E949BB883E0809365
:1049900036020E941F91B7C810921504B4C881E076
:1049A00080931504B0C885E40E9489B8B82E81119F
:1049B00002C00E942E3554EB852E52E0952E6DE9F3
:1049C000C62E60E1D62E71E3E72E7AE0F72E00E0E6
:1049D00010E0A12CD4018D914D010E9489B888234B
:1049E00039F1F60140805180628073800E9427B8BF
:1049F000D6016D937D938D939C9313970330C1F0F3
:104A0000A30192010E9431F59B01AC01F701608185
:104A10007181828193810E9432F5D7016D937D93DC
:104A20008D939C931397C8010E942E97AA24A39458
:104A30000F5F1F4FB4E0CB0ED11CE4E0EE0EF11C73
:104A40000430110539F6AA2019F00E94DDB703C021
:104A5000B1100E94D3C40E941F9155C880911C04BC
:104A600090911D048237910509F418C70CF0E5C038
:104A70008B34910509F419C40CF071C0883191058B
:104A800009F48EC2D4F58231910509F435C6D4F407
:104A900097FD39C8823091050CF4B0C1419709F0F7
:104AA00032C860E088E992E00E94EE665F988A98DA
:104AB0009FB7F894809108018E7F809308019FBF73
:104AC000129821C88531910509F460C234F44497E5
:104AD00009F019C8E4EBF2E019C28631910509F436
:104AE00059C2479709F00FC840E061E080910E0479
:104AF00090910F040E94FFC706C88C31910509F4FC
:104B0000CAC2A4F48A31910509F469C20CF086C2C4
:104B100010920F0D0E9411C585EC92E09093790CD4
:104B20008093780C0E9484B70C94831D8F3191057B
:104B300009F405C344F44E9711F00C94831D0E94B0
:104B4000C7990C94831D8032910509F4AEC28A97EF
:104B500011F00C94831D0E9424940C94831D8836BC
:104B6000910509F4AEC30CF040C08235910509F4FB
:104B7000BAC514F58D34910509F49FC30CF499C39B
:104B80008135910511F00C94831D0E941F5C0E94D9
:104B90002E350E9493E110928E1210928D1268EEC3
:104BA00073E080E090E00E94BE6560E08CE793E0F7
:104BB0000E94EE660C94831D8435910509F49CC512
:104BC0000CF495C58535910509F4CDC58C35910555
:104BD00011F00C94831D94EBC92E92E0D92E2DEA8E
:104BE000E22E20E1F22E10E0D9C58D36910509F4B0
:104BF000D5C49CF48A36910509F4D8C40CF488C451
:104C00008B36910509F4F1C48C36910511F00C94A2
:104C1000831D10928B020C94831D8F36910509F42D
:104C2000BAC30CF4A5C38037910509F422C48137B7
:104C3000910509F422C40C94831D8C3D910511F457
:104C40000C9428300CF05FC08139910509F46BC7D2
:104C50001CF58737910509F4CEC074F485379105AA
:104C600009F4B1C60CF0B8C68337910511F00C9465
:104C7000831DE5E6F4E01BC68937910509F44DC7AD
:104C80000CF444C78D37910509F4C1C48C389105E3
:104C900009F420C40C94831D8B3C910511F40C94F1
:104CA0007C2EDCF48E3B910509F47CC434F48B3902
:104CB000910509F44AC40C94831D883C910509F4BC
:104CC000ADC7893C910511F00C94831DE4EBEE2EE9
:104CD000E2E0FE2E0AE91FE0F5C78D3C910511F4D4
:104CE0000C94042F14F40C94982E8E3C910511F41E
:104CF0000C94712F833D910511F00C94831DEAEB08
:104D0000F5E20C94902F8039F1E09F0711F40C9498
:104D100023328CF58D3231E0930711F40C94AB30D3
:104D200094F4823E910511F40C9453308C3251E08E
:104D3000950711F40C9481308D3D910511F00C9480
:104D4000831D0C9437308F32A1E09A0711F40C9434
:104D50001F3214F40C94C8318033E1E09E0711F443
:104D60000C944A318336914011F00C94831DE4E891
:104D7000F5E20C943033863F21E0920711F40C9455
:104D80001633FCF48C3A41E0940711F40C9426326B
:104D90004CF48A39914011F00C94831D0E949D8C33
:104DA0000C94831D843FB1E09B0711F40C941233E3
:104DB000853F914011F00C94831D0E9424CA0C94ED
:104DC000831D8835F2E09F0711F40C9429333CF4DD
:104DD000873F914011F40C941A330C94831D803A50
:104DE00043E0940709F49EC1873E934011F40C946C
:104DF00044330C94831DEEE4F5E028C6A0900E0425
:104E0000B0900F0480E50E9489B8882359F00E9471
:104E1000E7B76B017C0111E0672B682B692B31F43C
:104E200010E004C010E0C12CD12C760183E50E9473
:104E300089B88823F1F00E9427B820E030E04AE7E3
:104E400054E40E946DF10E947BF66B017C0111110C
:104E500012C0672B682B692B71F4A114B10459F0AF
:104E6000D5018C91882339F061E0C5010E940B6760
:104E700007C0112391F360E086E892E00E94EE669D
:104E800083E090E090933E0A80933D0A81E0809316
:104E9000060A0E942E350E949BB8C114D104E10479
:104EA000F104E1F080912F1490913014A09131140D
:104EB000B0913214C80ED91EEA1EFB1E0E9460D8A3
:104EC000DC01CB018C199D09AE09BF09B7FF1AC0DF
:104ED0008091060A81110C94AC3314C08091060AAB
:104EE000882321F080E00E9471DEF8CF80910F0DC1
:104EF00060E0882319F085E792E002C081E692E045
:104F00000E94EE661092060A0C94831D84918F0114
:104F10000F5F1F4F882321F00E94A6B8F801F6CF3B
:104F20001092950F1092940F80E49DE00E9488B13A
:104F30008BE1E0E4FDE0DE01159601900D928A958B
:104F4000E1F780913E0D90913F0D9C838B8382ED24
:104F500092E09A83898340E050E0BE016F5F7F4F0B
:104F60008AE693E00E94E3C5CE0101960E941B6E83
:104F7000E5EAF2E084918F010F5F1F4F882311F45F
:104F80000C94831D0E94A6B8F801F4CF0E947C7A8D
:104F90000C94831D10920F0D1092100D0C94831D14
:104FA00019821A821B821C8218A219A21AA21BA2A1
:104FB00080914F0A882341F040E0BE016F5F7F4F30
:104FC000CE0180960E94DA6B8091100D882319F033
:104FD00081E080930F0D0E942BC50C94831D80915E
:104FE000100D882311F40C94831D83E50E9489B869
:104FF000882311F40C94831D0E94F7B7AB01BC0108
:1050000040938B0F50938C0F60938D0F70938E0F86
:105010008AED9EE00E9406DC0C94831D8091100DA9
:10502000811103C0ECEDF2E02AC0EAECF2E08491D9
:105030008F010F5F1F4F882321F00E94A6B8F8014F
:10504000F6CF60918B0F70918C0F80918D0F9091A6
:105050008E0F4AE00E94ADB88FE20E94A6B8609120
:10506000870F7091880F8091890F90918A0F4AE085
:105070000E94ADB88AE00E94A6B80C94831D84916A
:105080008F010F5F1F4F882311F40C94831D0E9422
:10509000A6B8F801F4CF40E060E080910E04909152
:1050A0000F040E94FFC70C94831D80910F0D811186
:1050B0000E942E35E0900E04F0900F0480E50E94CF
:1050C0005AB8182F882319F00E9418B8182F809109
:1050D000100D882311F40C94831D412F61E0C7014A
:1050E0000E94FFC783E50E9489B8882381F00E944F
:1050F000F7B7AB01BC0140938B0F50938C0F6093BB
:105100008D0F70938E0F8AED9EE00E9406DC8091D9
:10511000100D882319F081E080930F0D11110C946C
:10512000831D59CF80910E0490910F0421E02093AC
:105130000E0D40E060E00E94FFC70C94831D0E94AA
:10514000C47B7B018C0120E831E541E050E00E9406
:10515000F6F4C9016DE671E00E94F6F74B015C01BF
:10516000C801B70120E13EE040E050E00E94F6F4C3
:10517000CA01B90128E130E040E050E00E94F6F4B5
:10518000762E672EC62ED72E4CE3242E312C412CA2
:10519000512CC801B701A20191010E94F6F4F62E2C
:1051A000E72ECA01B901A20191010E94F6F4CB01D8
:1051B0008E010F5F1F4F8114910499F0EF92FF92BF
:1051C0007F936F936F927F92BF92AF929F928F92D5
:1051D00085E193E09F938F931F930F930E94A2F01A
:1051E00013C0A114B104B1F0EF92FF927F936F93BB
:1051F0006F927F92BF92AF9285E093E09F938F93DF
:105200001F930F930E94A2F00FB6F894DEBF0FBE5B
:10521000CDBF30C0CD2879F0EF92FF927F936F938E
:105220006F927F9289EF92E09F938F931F930F93DA
:105230000E94A2F0E9CF892B69F0EF92FF927F9351
:105240006F9381EF92E09F938F931F930F930E9430
:10525000A2F0DACFEF92FF928DEE92E09F938F93C0
:105260001F930F930E94A2F00F900F900F900F903A
:105270000F900F9060E0C8010E940B67EAEBF5E227
:1052800084917F019FEFE91AF90A882321F00E9497
:10529000A6B8F701F5CFB80189E293E00E94DB3CA4
:1052A0008AE00E94A6B80C94831D0E942BC50C9422
:1052B000831D0E9411C50C94831D0E946C770C9471
:1052C000831D88E690E00E94C09781110C94831D95
:1052D0008091FA0F83FF02C00C94831D83E50E9426
:1052E00089B8882309F440C00E9427B80E9476F646
:1052F00070938C1260938B1280E00E94D35B0E94AB
:1053000027B820E030E04AEA52E40E9408F118167B
:105310003CF00E946C7760E08DE393E00E94EE66C3
:105320000E9427B82091070A3091080A4091090A83
:1053300050910A0A0E9458F71816B4F489E393E0D2
:105340009F938F938091100490E001969F938F9389
:1053500086E393E09F938F931F920E9485770FB609
:10536000F894DEBF0FBECDBF0E94A8A10C94831D90
:105370008EE40E9489B8882311F40C94831D0E9446
:10538000F7B7609324147093251480932614909398
:1053900027140C94831D83E50E9489B8882319F093
:1053A0000E9407B801C080E08093FA0FEAEBF5E2B3
:1053B00084918F010F5F1F4F811103C0EFE5F3E070
:1053C00004C00E94A6B8F801F3CF84918F010F5F4B
:1053D0001F4F882321F00E94A6B8F801F6CF8091D4
:1053E000FA0F811103C0EBE5F3E034C031E5C32EC1
:1053F00033E0D32EE12CF12C20E08091FA0F90E0E5
:105400000E2C02C0959587950A94E2F780FF17C08D
:10541000BB24B394B20E222319F08CE20E94A6B8EA
:10542000F60185919491FC0184918F010F5F1F4FCC
:10543000882321F00E94A6B8F801F6CF2B2DBFEFEC
:10544000EB1AFB0AE2E0CE0ED11CF5E0EF16F104F8
:10545000A1F60AC084918F010F5F1F4F882321F0AE
:105460000E94A6B8F801F6CF8AE00E94A6B80C9474
:10547000831D86E693E00E94236E83E50E9489B82F
:10548000811103C0EAEBF5E20DC00E9407B88093DA
:10549000AF028D3310F40C94831D8CE38093AF0224
:1054A0000C94831D84918F010F5F1F4F882321F07F
:1054B0000E94A6B8F801F6CF4091AF0250E060E03C
:1054C00070E082E793E00E94883C8AE00E94A6B8E0
:1054D0000C94831D8091FA0F83FF02C00C94831DEE
:1054E00083E50E9489B8882311F40C94831D0E94DF
:1054F00027B80E9476F66739710514F066E970E006
:1055000070938A12609389120E94875B0C94831DAA
:1055100089E690E00E94C097811111C0E9E7F3E0AD
:1055200084918F010F5F1F4F882321F00E94A6B83E
:10553000F801F6CF0E94A1938AE00E94A6B81092CB
:105540003E0A10923D0A0C94043483E50E9489B807
:10555000882311F40C94831D0E9407B880932C14A7
:105560008D3318F08CE380932C140E9460D86B016B
:105570007C0120912C1430E0A8EEB3E00E9422F5CB
:10558000C60ED71EE81EF91EC0922814D092291408
:10559000E0922A14F0922B140C94831D0E9402981E
:1055A0000C94831D0E94DE910C94831D83E50E9460
:1055B00089B8882339F00E94F7B78B016F3F7105D6
:1055C00019F010F00FEF10E080E50E9489B881110A
:1055D00006C010938E1200938D120C94831D0E94AE
:1055E00007B881110C94831DF4CF80E50E9489B81F
:1055F000811106C010928E1210928D120C94831D90
:105600000E94F7B7672B11F00C94831DF3CF8CE445
:105610000E945AB8882319F00E9427B804C060E09D
:1056200070E080E090EC6CA77DA78EA79FA78AE52D
:105630000E9489B8882319F00E9427B803C060E04F
:1056400070E0CB0120E030E040E251E40E9432F50E
:1056500068A779A78AA79BA788E50E9489B88823AD
:1056600019F00E9427B803C060E070E0CB0120E091
:1056700030E040E450E40E9432F56CA37DA38EA399
:105680009FA389E50E9489B8882319F00E9427B852
:1056900003C060E070E0CB0120E030E040E450E483
:1056A0000E9432F568A379A38AA39BA319821A8268
:1056B0001B821C8280914F0A81110C94831DC12C86
:1056C000E12C8E010F5F1F4F9E01205E3F4FAE0108
:1056D0004C5D5F4FBE01685D7F4FCE018C960E948E
:1056E000406A0C94831D109214040C94831D81E075
:1056F000809314040C94831D83E50E9489B8882349
:10570000A1F00E9427B820E030E04AE754E40E946C
:105710006DF10E947BF66093B0027093B1028093AA
:10572000B2029093B3020C94831D88E50E945AB88C
:1057300081110C94B13389E50E945AB881110C94FF
:10574000B1338AE50E945AB881110C94B13385E4D3
:105750000E945AB881110C94B1330E942E350E94D8
:1057600093E10C94831D83E50E945AB8882311F4B9
:105770000C94831D0E9427B820E030E04AE754E4EF
:105780000E946DF10E947BF6609333147093341481
:1057900080933514909336140C94831DD6018D910B
:1057A0006D010E945AB8882309F46DC0133009F0C6
:1057B00063C00E9427B84B015C0120E030E040EA62
:1057C00051E40E9408F187FF4EC0A5019401609149
:1057D000B9107091BA108091BB109091BC100E94CA
:1057E0000EF62B013C019B01AC016091C20F709140
:1057F000C30F8091C40F9091C50F0E946DF160930B
:10580000C20F7093C30F8093C40F9093C50FA30171
:10581000920160913C0970913D0980913E099091FF
:105820003F090E946DF160933C0970933D0980939C
:105830003E0990933F09609112107091131080916E
:105840001410909115100E940CF1A30192010E9476
:105850006DF10E947BF66093121070931310809389
:105860001410909315108092B9109092BA10A092D3
:10587000BB10B092BC1007C00E9427B8F70160832C
:105880007183828393831F5FF4E0EF0EF11C143069
:1058900009F084CF0E94F6A20C94831D0E942E353D
:1058A0000E941F910C94831D0E94A6B8F801849158
:1058B0008F010F5F1F4F8111F7CFE7E5F4E003C0C1
:1058C0000E94A6B8F80184918F010F5F1F4F8111CC
:1058D000F7CFE0E4F4E003C00E94A6B8F801849199
:1058E0008F010F5F1F4F8111F7CFE0E3F4E003C09A
:1058F0000E94A6B8F80184918F010F5F1F4F81119C
:10590000F7CFEFE1F4E003C00E94A6B8F80184915C
:105910008F010F5F1F4F8111F7CFEEE0F4E003C05E
:105920000E94A6B8F80184918F010F5F1F4F81116B
:10593000F7CFEFEFF3E003C00E94A6B8F80184911F
:105940008F010F5F1F4F8111F7CFEAEEF3E003C025
:105950000E94A6B8F80184918F010F5F1F4F81113B
:10596000F7CFE4EDF3E003C00E94A6B8F8018491FC
:105970008F010F5F1F4F8111F7CFEFEBF3E003C0F3
:105980000E94A6B8F80184918F010F5F1F4F81110B
:10599000F7CFE2EAF3E003C00E94A6B8F8018491D1
:1059A0008F010F5F1F4F8111F7CFEAE8F3E0849179
:1059B0008F010F5F1F4F882311F40C94831D0E94E9
:1059C000A6B8F801F4CF60E080910E0490910F0426
:1059D0000E940B670C94831D85E40E945AB88823AB
:1059E00081F00E9418B8882361F0EAEBF5E2849117
:1059F0008F010F5F1F4F882321F00E94A6B8F80186
:105A0000F6CF81E40E945AB8882381F00E9418B82A
:105A1000882361F0E2E3F5E084918F010F5F1F4F6F
:105A2000882321F00E94A6B8F801F6CF00910E0459
:105A300010910F04D8018D918D01882309F414CDA4
:105A40000E94A6B8F7CF0E94A6B8F80184918F01F2
:105A50000F5F1F4F8111F7CFE6E4F5E084918F01CE
:105A60000F5F1F4F882321F00E94A6B8F801F6CFE0
:105A7000659B03C00BE213E002C006E213E0F801ED
:105A800081918F01882319F00E94A6B8F8CF8AE08F
:105A90000E94A6B8EEE3F5E084918F010F5F1F4FDF
:105AA000882321F00E94A6B8F801F6CF8091030167
:105AB00081FF03C00BE213E002C006E213E0D8014D
:105AC0008D918D01882319F00E94A6B8F8CF8AE045
:105AD0000E94A6B8E6E3F5E084918F010F5F1F4FA7
